{
  "contractName": "Color",
  "abi": [
    {
      "constant": true,
      "inputs": [
        {
          "name": "interfaceId",
          "type": "bytes4"
        }
      ],
      "name": "supportsInterface",
      "outputs": [
        {
          "name": "",
          "type": "bool"
        }
      ],
      "payable": false,
      "stateMutability": "view",
      "type": "function",
      "signature": "0x01ffc9a7"
    },
    {
      "constant": true,
      "inputs": [],
      "name": "name",
      "outputs": [
        {
          "name": "",
          "type": "string"
        }
      ],
      "payable": false,
      "stateMutability": "view",
      "type": "function",
      "signature": "0x06fdde03"
    },
    {
      "constant": true,
      "inputs": [
        {
          "name": "tokenId",
          "type": "uint256"
        }
      ],
      "name": "getApproved",
      "outputs": [
        {
          "name": "",
          "type": "address"
        }
      ],
      "payable": false,
      "stateMutability": "view",
      "type": "function",
      "signature": "0x081812fc"
    },
    {
      "constant": false,
      "inputs": [
        {
          "name": "to",
          "type": "address"
        },
        {
          "name": "tokenId",
          "type": "uint256"
        }
      ],
      "name": "approve",
      "outputs": [],
      "payable": false,
      "stateMutability": "nonpayable",
      "type": "function",
      "signature": "0x095ea7b3"
    },
    {
      "constant": true,
      "inputs": [],
      "name": "claimPrice",
      "outputs": [
        {
          "name": "",
          "type": "uint256"
        }
      ],
      "payable": false,
      "stateMutability": "view",
      "type": "function",
      "signature": "0x15d655c9"
    },
    {
      "constant": true,
      "inputs": [],
      "name": "totalSupply",
      "outputs": [
        {
          "name": "",
          "type": "uint256"
        }
      ],
      "payable": false,
      "stateMutability": "view",
      "type": "function",
      "signature": "0x18160ddd"
    },
    {
      "constant": true,
      "inputs": [
        {
          "name": "",
          "type": "uint256"
        }
      ],
      "name": "sims",
      "outputs": [
        {
          "name": "a",
          "type": "uint256"
        },
        {
          "name": "b",
          "type": "uint256"
        },
        {
          "name": "c",
          "type": "uint256"
        },
        {
          "name": "d",
          "type": "uint256"
        }
      ],
      "payable": false,
      "stateMutability": "view",
      "type": "function",
      "signature": "0x1e4e704b"
    },
    {
      "constant": false,
      "inputs": [
        {
          "name": "from",
          "type": "address"
        },
        {
          "name": "to",
          "type": "address"
        },
        {
          "name": "tokenId",
          "type": "uint256"
        }
      ],
      "name": "transferFrom",
      "outputs": [],
      "payable": false,
      "stateMutability": "nonpayable",
      "type": "function",
      "signature": "0x23b872dd"
    },
    {
      "constant": true,
      "inputs": [],
      "name": "changeItemPrice",
      "outputs": [
        {
          "name": "",
          "type": "uint256"
        }
      ],
      "payable": false,
      "stateMutability": "view",
      "type": "function",
      "signature": "0x30acedc9"
    },
    {
      "constant": true,
      "inputs": [],
      "name": "decimals",
      "outputs": [
        {
          "name": "",
          "type": "uint8"
        }
      ],
      "payable": false,
      "stateMutability": "view",
      "type": "function",
      "signature": "0x313ce567"
    },
    {
      "constant": false,
      "inputs": [
        {
          "name": "from",
          "type": "address"
        },
        {
          "name": "to",
          "type": "address"
        },
        {
          "name": "tokenId",
          "type": "uint256"
        }
      ],
      "name": "safeTransferFrom",
      "outputs": [],
      "payable": false,
      "stateMutability": "nonpayable",
      "type": "function",
      "signature": "0x42842e0e"
    },
    {
      "constant": true,
      "inputs": [],
      "name": "likesPrice",
      "outputs": [
        {
          "name": "",
          "type": "uint256"
        }
      ],
      "payable": false,
      "stateMutability": "view",
      "type": "function",
      "signature": "0x5b44164e"
    },
    {
      "constant": true,
      "inputs": [
        {
          "name": "tokenId",
          "type": "uint256"
        }
      ],
      "name": "ownerOf",
      "outputs": [
        {
          "name": "",
          "type": "address"
        }
      ],
      "payable": false,
      "stateMutability": "view",
      "type": "function",
      "signature": "0x6352211e"
    },
    {
      "constant": true,
      "inputs": [
        {
          "name": "owner",
          "type": "address"
        }
      ],
      "name": "balanceOf",
      "outputs": [
        {
          "name": "",
          "type": "uint256"
        }
      ],
      "payable": false,
      "stateMutability": "view",
      "type": "function",
      "signature": "0x70a08231"
    },
    {
      "constant": true,
      "inputs": [],
      "name": "changePrice",
      "outputs": [
        {
          "name": "",
          "type": "uint256"
        }
      ],
      "payable": false,
      "stateMutability": "view",
      "type": "function",
      "signature": "0x81b6e8e3"
    },
    {
      "constant": true,
      "inputs": [
        {
          "name": "",
          "type": "uint256"
        }
      ],
      "name": "digitmon",
      "outputs": [
        {
          "name": "name",
          "type": "string"
        },
        {
          "name": "gender",
          "type": "string"
        },
        {
          "name": "hairColor",
          "type": "string"
        },
        {
          "name": "eyeColor",
          "type": "string"
        },
        {
          "name": "headColor",
          "type": "string"
        },
        {
          "name": "secret",
          "type": "string"
        },
        {
          "name": "likes",
          "type": "uint256"
        },
        {
          "name": "simowner",
          "type": "address"
        }
      ],
      "payable": false,
      "stateMutability": "view",
      "type": "function",
      "signature": "0x8cefe110"
    },
    {
      "constant": true,
      "inputs": [],
      "name": "owner",
      "outputs": [
        {
          "name": "",
          "type": "address"
        }
      ],
      "payable": false,
      "stateMutability": "view",
      "type": "function",
      "signature": "0x8da5cb5b"
    },
    {
      "constant": true,
      "inputs": [],
      "name": "symbol",
      "outputs": [
        {
          "name": "",
          "type": "string"
        }
      ],
      "payable": false,
      "stateMutability": "view",
      "type": "function",
      "signature": "0x95d89b41"
    },
    {
      "constant": false,
      "inputs": [
        {
          "name": "to",
          "type": "address"
        },
        {
          "name": "approved",
          "type": "bool"
        }
      ],
      "name": "setApprovalForAll",
      "outputs": [],
      "payable": false,
      "stateMutability": "nonpayable",
      "type": "function",
      "signature": "0xa22cb465"
    },
    {
      "constant": true,
      "inputs": [],
      "name": "id",
      "outputs": [
        {
          "name": "",
          "type": "uint256"
        }
      ],
      "payable": false,
      "stateMutability": "view",
      "type": "function",
      "signature": "0xaf640d0f"
    },
    {
      "constant": false,
      "inputs": [
        {
          "name": "from",
          "type": "address"
        },
        {
          "name": "to",
          "type": "address"
        },
        {
          "name": "tokenId",
          "type": "uint256"
        },
        {
          "name": "_data",
          "type": "bytes"
        }
      ],
      "name": "safeTransferFrom",
      "outputs": [],
      "payable": false,
      "stateMutability": "nonpayable",
      "type": "function",
      "signature": "0xb88d4fde"
    },
    {
      "constant": true,
      "inputs": [
        {
          "name": "",
          "type": "uint256"
        }
      ],
      "name": "monstersIndexToAddress",
      "outputs": [
        {
          "name": "",
          "type": "address"
        }
      ],
      "payable": false,
      "stateMutability": "view",
      "type": "function",
      "signature": "0xd4b2f252"
    },
    {
      "constant": true,
      "inputs": [
        {
          "name": "owner",
          "type": "address"
        },
        {
          "name": "operator",
          "type": "address"
        }
      ],
      "name": "isApprovedForAll",
      "outputs": [
        {
          "name": "",
          "type": "bool"
        }
      ],
      "payable": false,
      "stateMutability": "view",
      "type": "function",
      "signature": "0xe985e9c5"
    },
    {
      "inputs": [],
      "payable": false,
      "stateMutability": "nonpayable",
      "type": "constructor",
      "signature": "constructor"
    },
    {
      "anonymous": false,
      "inputs": [
        {
          "indexed": true,
          "name": "from",
          "type": "address"
        },
        {
          "indexed": true,
          "name": "to",
          "type": "address"
        },
        {
          "indexed": true,
          "name": "tokenId",
          "type": "uint256"
        }
      ],
      "name": "Transfer",
      "type": "event",
      "signature": "0xddf252ad1be2c89b69c2b068fc378daa952ba7f163c4a11628f55a4df523b3ef"
    },
    {
      "anonymous": false,
      "inputs": [
        {
          "indexed": true,
          "name": "owner",
          "type": "address"
        },
        {
          "indexed": true,
          "name": "approved",
          "type": "address"
        },
        {
          "indexed": true,
          "name": "tokenId",
          "type": "uint256"
        }
      ],
      "name": "Approval",
      "type": "event",
      "signature": "0x8c5be1e5ebec7d5bd14f71427d1e84f3dd0314c0f7b2291e5b200ac8c7c3b925"
    },
    {
      "anonymous": false,
      "inputs": [
        {
          "indexed": true,
          "name": "owner",
          "type": "address"
        },
        {
          "indexed": true,
          "name": "operator",
          "type": "address"
        },
        {
          "indexed": false,
          "name": "approved",
          "type": "bool"
        }
      ],
      "name": "ApprovalForAll",
      "type": "event",
      "signature": "0x17307eab39ab6107e8899845ad3d59bd9653f200f220920489ca2b5937696c31"
    },
    {
      "constant": false,
      "inputs": [
        {
          "name": "_name",
          "type": "string"
        },
        {
          "name": "_gender",
          "type": "string"
        },
        {
          "name": "_haircolor",
          "type": "string"
        },
        {
          "name": "_eyecolor",
          "type": "string"
        },
        {
          "name": "_headcolor",
          "type": "string"
        },
        {
          "name": "_secret",
          "type": "string"
        }
      ],
      "name": "mint",
      "outputs": [],
      "payable": true,
      "stateMutability": "payable",
      "type": "function",
      "signature": "0xef5f5c0e"
    },
    {
      "constant": false,
      "inputs": [
        {
          "name": "_id",
          "type": "uint256"
        },
        {
          "name": "_name",
          "type": "string"
        }
      ],
      "name": "changeName",
      "outputs": [],
      "payable": true,
      "stateMutability": "payable",
      "type": "function",
      "signature": "0xc39cbef1"
    },
    {
      "constant": false,
      "inputs": [
        {
          "name": "_id",
          "type": "uint256"
        },
        {
          "name": "_g",
          "type": "string"
        }
      ],
      "name": "changeGender",
      "outputs": [],
      "payable": true,
      "stateMutability": "payable",
      "type": "function",
      "signature": "0x776e2342"
    },
    {
      "constant": false,
      "inputs": [
        {
          "name": "_id",
          "type": "uint256"
        },
        {
          "name": "_h",
          "type": "string"
        }
      ],
      "name": "changeHair",
      "outputs": [],
      "payable": true,
      "stateMutability": "payable",
      "type": "function",
      "signature": "0x600a850d"
    },
    {
      "constant": false,
      "inputs": [
        {
          "name": "_id",
          "type": "uint256"
        },
        {
          "name": "_e",
          "type": "string"
        }
      ],
      "name": "changeEye",
      "outputs": [],
      "payable": true,
      "stateMutability": "payable",
      "type": "function",
      "signature": "0x3158d712"
    },
    {
      "constant": false,
      "inputs": [
        {
          "name": "_id",
          "type": "uint256"
        },
        {
          "name": "_headcolor",
          "type": "string"
        }
      ],
      "name": "changeHead",
      "outputs": [],
      "payable": true,
      "stateMutability": "payable",
      "type": "function",
      "signature": "0x3cbeac4d"
    },
    {
      "constant": false,
      "inputs": [
        {
          "name": "_id",
          "type": "uint256"
        },
        {
          "name": "_secret",
          "type": "string"
        }
      ],
      "name": "changeSecret",
      "outputs": [],
      "payable": true,
      "stateMutability": "payable",
      "type": "function",
      "signature": "0xf1756038"
    },
    {
      "constant": false,
      "inputs": [
        {
          "name": "_id",
          "type": "uint256"
        }
      ],
      "name": "giveLike",
      "outputs": [],
      "payable": true,
      "stateMutability": "payable",
      "type": "function",
      "signature": "0xd07fa862"
    },
    {
      "constant": false,
      "inputs": [
        {
          "name": "_id",
          "type": "uint256"
        }
      ],
      "name": "equipA",
      "outputs": [],
      "payable": true,
      "stateMutability": "payable",
      "type": "function",
      "signature": "0x19e1ad91"
    },
    {
      "constant": false,
      "inputs": [
        {
          "name": "_id",
          "type": "uint256"
        }
      ],
      "name": "equipB",
      "outputs": [],
      "payable": true,
      "stateMutability": "payable",
      "type": "function",
      "signature": "0xf314c770"
    },
    {
      "constant": false,
      "inputs": [
        {
          "name": "_id",
          "type": "uint256"
        }
      ],
      "name": "equipC",
      "outputs": [],
      "payable": true,
      "stateMutability": "payable",
      "type": "function",
      "signature": "0x1ad24fbc"
    },
    {
      "constant": false,
      "inputs": [
        {
          "name": "_id",
          "type": "uint256"
        }
      ],
      "name": "equipD",
      "outputs": [],
      "payable": true,
      "stateMutability": "payable",
      "type": "function",
      "signature": "0xf6a85b79"
    },
    {
      "constant": false,
      "inputs": [
        {
          "name": "_id",
          "type": "uint256"
        }
      ],
      "name": "Train_Digimon",
      "outputs": [],
      "payable": false,
      "stateMutability": "nonpayable",
      "type": "function",
      "signature": "0x68edbf9f"
    }
  ],
  "bytecode": "0x6080604052666a94d74f430000600c55670429d069189e0000600d55660110d9316ec000600e55655af3107a4000600f55620186a06016553480156200004457600080fd5b50620000826301ffc9a77c010000000000000000000000000000000000000000000000000000000002620001be640100000000026401000000009004565b620000bf6380ac58cd7c010000000000000000000000000000000000000000000000000000000002620001be640100000000026401000000009004565b33600760006101000a81548173ffffffffffffffffffffffffffffffffffffffff021916908373ffffffffffffffffffffffffffffffffffffffff1602179055506040805190810160405280600b81526020017f43727970746f2053696d73000000000000000000000000000000000000000000815250600990805190602001906200014d929190620002e5565b506040805190810160405280600481526020017f53494d5300000000000000000000000000000000000000000000000000000000815250600a90805190602001906200019b929190620002e5565b506000600b60006101000a81548160ff021916908360ff16021790555062000394565b63ffffffff7c010000000000000000000000000000000000000000000000000000000002817bffffffffffffffffffffffffffffffffffffffffffffffffffffffff19161415151562000279576040517f08c379a000000000000000000000000000000000000000000000000000000000815260040180806020018281038252601c8152602001807f4552433136353a20696e76616c696420696e746572666163652069640000000081525060200191505060405180910390fd5b6001600080837bffffffffffffffffffffffffffffffffffffffffffffffffffffffff19167bffffffffffffffffffffffffffffffffffffffffffffffffffffffff1916815260200190815260200160002060006101000a81548160ff02191690831515021790555050565b828054600181600116156101000203166002900490600052602060002090601f016020900481019282601f106200032857805160ff191683800117855562000359565b8280016001018555821562000359579182015b82811115620003585782518255916020019190600101906200033b565b5b5090506200036891906200036c565b5090565b6200039191905b808211156200038d57600081600090555060010162000373565b5090565b90565b61449180620003a46000396000f3fe6080604052600436106101c2576000357c0100000000000000000000000000000000000000000000000000000000900463ffffffff16806301ffc9a7146101c757806306fdde0314610239578063081812fc146102c9578063095ea7b31461034457806315d655c91461039f57806318160ddd146103ca57806319e1ad91146103f55780631ad24fbc146104235780631e4e704b1461045157806323b872dd146104b557806330acedc914610530578063313ce5671461055b5780633158d7121461058c5780633cbeac4d1461065157806342842e0e146107165780635b44164e14610791578063600a850d146107bc5780636352211e1461088157806368edbf9f146108fc57806370a0823114610937578063776e23421461099c57806381b6e8e314610a615780638cefe11014610a8c5780638da5cb5b14610d9657806395d89b4114610ded578063a22cb46514610e7d578063af640d0f14610eda578063b88d4fde14610f05578063c39cbef114611017578063d07fa862146110dc578063d4b2f2521461110a578063e985e9c514611185578063ef5f5c0e1461120e578063f1756038146115bc578063f314c77014611681578063f6a85b79146116af575b600080fd5b3480156101d357600080fd5b5061021f600480360360208110156101ea57600080fd5b8101908080357bffffffffffffffffffffffffffffffffffffffffffffffffffffffff191690602001909291905050506116dd565b604051808215151515815260200191505060405180910390f35b34801561024557600080fd5b5061024e611744565b6040518080602001828103825283818151815260200191508051906020019080838360005b8381101561028e578082015181840152602081019050610273565b50505050905090810190601f1680156102bb5780820380516001836020036101000a031916815260200191505b509250505060405180910390f35b3480156102d557600080fd5b50610302600480360360208110156102ec57600080fd5b81019080803590602001909291905050506117e2565b604051808273ffffffffffffffffffffffffffffffffffffffff1673ffffffffffffffffffffffffffffffffffffffff16815260200191505060405180910390f35b34801561035057600080fd5b5061039d6004803603604081101561036757600080fd5b81019080803573ffffffffffffffffffffffffffffffffffffffff169060200190929190803590602001909291905050506118c2565b005b3480156103ab57600080fd5b506103b4611b25565b6040518082815260200191505060405180910390f35b3480156103d657600080fd5b506103df611b2b565b6040518082815260200191505060405180910390f35b6104216004803603602081101561040b57600080fd5b8101908080359060200190929190505050611b31565b005b61044f6004803603602081101561043957600080fd5b8101908080359060200190929190505050611c5e565b005b34801561045d57600080fd5b5061048a6004803603602081101561047457600080fd5b8101908080359060200190929190505050611d8b565b6040518085815260200184815260200183815260200182815260200194505050505060405180910390f35b3480156104c157600080fd5b5061052e600480360360608110156104d857600080fd5b81019080803573ffffffffffffffffffffffffffffffffffffffff169060200190929190803573ffffffffffffffffffffffffffffffffffffffff16906020019092919080359060200190929190505050611dca565b005b34801561053c57600080fd5b50610545611e7e565b6040518082815260200191505060405180910390f35b34801561056757600080fd5b50610570611e84565b604051808260ff1660ff16815260200191505060405180910390f35b61064f600480360360408110156105a257600080fd5b8101908080359060200190929190803590602001906401000000008111156105c957600080fd5b8201836020820111156105db57600080fd5b803590602001918460018302840111640100000000831117156105fd57600080fd5b91908080601f016020809104026020016040519081016040528093929190818152602001838380828437600081840152601f19601f820116905080830192505050505050509192919290505050611e97565b005b6107146004803603604081101561066757600080fd5b81019080803590602001909291908035906020019064010000000081111561068e57600080fd5b8201836020820111156106a057600080fd5b803590602001918460018302840111640100000000831117156106c257600080fd5b91908080601f016020809104026020016040519081016040528093929190818152602001838380828437600081840152601f19601f820116905080830192505050505050509192919290505050611fbe565b005b34801561072257600080fd5b5061078f6004803603606081101561073957600080fd5b81019080803573ffffffffffffffffffffffffffffffffffffffff169060200190929190803573ffffffffffffffffffffffffffffffffffffffff169060200190929190803590602001909291905050506120e5565b005b34801561079d57600080fd5b506107a6612106565b6040518082815260200191505060405180910390f35b61087f600480360360408110156107d257600080fd5b8101908080359060200190929190803590602001906401000000008111156107f957600080fd5b82018360208201111561080b57600080fd5b8035906020019184600183028401116401000000008311171561082d57600080fd5b91908080601f016020809104026020016040519081016040528093929190818152602001838380828437600081840152601f19601f82011690508083019250505050505050919291929050505061210c565b005b34801561088d57600080fd5b506108ba600480360360208110156108a457600080fd5b8101908080359060200190929190505050612233565b604051808273ffffffffffffffffffffffffffffffffffffffff1673ffffffffffffffffffffffffffffffffffffffff16815260200191505060405180910390f35b34801561090857600080fd5b506109356004803603602081101561091f57600080fd5b8101908080359060200190929190505050612340565b005b34801561094357600080fd5b506109866004803603602081101561095a57600080fd5b81019080803573ffffffffffffffffffffffffffffffffffffffff1690602001909291905050506123d2565b6040518082815260200191505060405180910390f35b610a5f600480360360408110156109b257600080fd5b8101908080359060200190929190803590602001906401000000008111156109d957600080fd5b8201836020820111156109eb57600080fd5b80359060200191846001830284011164010000000083111715610a0d57600080fd5b91908080601f016020809104026020016040519081016040528093929190818152602001838380828437600081840152601f19601f8201169050808301925050505050505091929192905050506124ec565b005b348015610a6d57600080fd5b50610a76612613565b6040518082815260200191505060405180910390f35b348015610a9857600080fd5b50610ac560048036036020811015610aaf57600080fd5b8101908080359060200190929190505050612619565b604051808060200180602001806020018060200180602001806020018981526020018873ffffffffffffffffffffffffffffffffffffffff1673ffffffffffffffffffffffffffffffffffffffff16815260200187810387528f818151815260200191508051906020019080838360005b83811015610b51578082015181840152602081019050610b36565b50505050905090810190601f168015610b7e5780820380516001836020036101000a031916815260200191505b5087810386528e818151815260200191508051906020019080838360005b83811015610bb7578082015181840152602081019050610b9c565b50505050905090810190601f168015610be45780820380516001836020036101000a031916815260200191505b5087810385528d818151815260200191508051906020019080838360005b83811015610c1d578082015181840152602081019050610c02565b50505050905090810190601f168015610c4a5780820380516001836020036101000a031916815260200191505b5087810384528c818151815260200191508051906020019080838360005b83811015610c83578082015181840152602081019050610c68565b50505050905090810190601f168015610cb05780820380516001836020036101000a031916815260200191505b5087810383528b818151815260200191508051906020019080838360005b83811015610ce9578082015181840152602081019050610cce565b50505050905090810190601f168015610d165780820380516001836020036101000a031916815260200191505b5087810382528a818151815260200191508051906020019080838360005b83811015610d4f578082015181840152602081019050610d34565b50505050905090810190601f168015610d7c5780820380516001836020036101000a031916815260200191505b509e50505050505050505050505050505060405180910390f35b348015610da257600080fd5b50610dab612a20565b604051808273ffffffffffffffffffffffffffffffffffffffff1673ffffffffffffffffffffffffffffffffffffffff16815260200191505060405180910390f35b348015610df957600080fd5b50610e02612a46565b6040518080602001828103825283818151815260200191508051906020019080838360005b83811015610e42578082015181840152602081019050610e27565b50505050905090810190601f168015610e6f5780820380516001836020036101000a031916815260200191505b509250505060405180910390f35b348015610e8957600080fd5b50610ed860048036036040811015610ea057600080fd5b81019080803573ffffffffffffffffffffffffffffffffffffffff169060200190929190803515159060200190929190505050612ae4565b005b348015610ee657600080fd5b50610eef612c89565b6040518082815260200191505060405180910390f35b348015610f1157600080fd5b5061101560048036036080811015610f2857600080fd5b81019080803573ffffffffffffffffffffffffffffffffffffffff169060200190929190803573ffffffffffffffffffffffffffffffffffffffff1690602001909291908035906020019092919080359060200190640100000000811115610f8f57600080fd5b820183602082011115610fa157600080fd5b80359060200191846001830284011164010000000083111715610fc357600080fd5b91908080601f016020809104026020016040519081016040528093929190818152602001838380828437600081840152601f19601f820116905080830192505050505050509192919290505050612c8f565b005b6110da6004803603604081101561102d57600080fd5b81019080803590602001909291908035906020019064010000000081111561105457600080fd5b82018360208201111561106657600080fd5b8035906020019184600183028401116401000000008311171561108857600080fd5b91908080601f016020809104026020016040519081016040528093929190818152602001838380828437600081840152601f19601f820116905080830192505050505050509192919290505050612d46565b005b611108600480360360208110156110f257600080fd5b8101908080359060200190929190505050612f8b565b005b34801561111657600080fd5b506111436004803603602081101561112d57600080fd5b810190808035906020019092919050505061304b565b604051808273ffffffffffffffffffffffffffffffffffffffff1673ffffffffffffffffffffffffffffffffffffffff16815260200191505060405180910390f35b34801561119157600080fd5b506111f4600480360360408110156111a857600080fd5b81019080803573ffffffffffffffffffffffffffffffffffffffff169060200190929190803573ffffffffffffffffffffffffffffffffffffffff16906020019092919050505061307e565b604051808215151515815260200191505060405180910390f35b6115ba600480360360c081101561122457600080fd5b810190808035906020019064010000000081111561124157600080fd5b82018360208201111561125357600080fd5b8035906020019184600183028401116401000000008311171561127557600080fd5b91908080601f016020809104026020016040519081016040528093929190818152602001838380828437600081840152601f19601f820116905080830192505050505050509192919290803590602001906401000000008111156112d857600080fd5b8201836020820111156112ea57600080fd5b8035906020019184600183028401116401000000008311171561130c57600080fd5b91908080601f016020809104026020016040519081016040528093929190818152602001838380828437600081840152601f19601f8201169050808301925050505050505091929192908035906020019064010000000081111561136f57600080fd5b82018360208201111561138157600080fd5b803590602001918460018302840111640100000000831117156113a357600080fd5b91908080601f016020809104026020016040519081016040528093929190818152602001838380828437600081840152601f19601f8201169050808301925050505050505091929192908035906020019064010000000081111561140657600080fd5b82018360208201111561141857600080fd5b8035906020019184600183028401116401000000008311171561143a57600080fd5b91908080601f016020809104026020016040519081016040528093929190818152602001838380828437600081840152601f19601f8201169050808301925050505050505091929192908035906020019064010000000081111561149d57600080fd5b8201836020820111156114af57600080fd5b803590602001918460018302840111640100000000831117156114d157600080fd5b91908080601f016020809104026020016040519081016040528093929190818152602001838380828437600081840152601f19601f8201169050808301925050505050505091929192908035906020019064010000000081111561153457600080fd5b82018360208201111561154657600080fd5b8035906020019184600183028401116401000000008311171561156857600080fd5b91908080601f016020809104026020016040519081016040528093929190818152602001838380828437600081840152601f19601f820116905080830192505050505050509192919290505050613112565b005b61167f600480360360408110156115d257600080fd5b8101908080359060200190929190803590602001906401000000008111156115f957600080fd5b82018360208201111561160b57600080fd5b8035906020019184600183028401116401000000008311171561162d57600080fd5b91908080601f016020809104026020016040519081016040528093929190818152602001838380828437600081840152601f19601f82011690508083019250505050505050919291929050505061353e565b005b6116ad6004803603602081101561169757600080fd5b8101908080359060200190929190505050613672565b005b6116db600480360360208110156116c557600080fd5b810190808035906020019092919050505061379f565b005b6000806000837bffffffffffffffffffffffffffffffffffffffffffffffffffffffff19167bffffffffffffffffffffffffffffffffffffffffffffffffffffffff1916815260200190815260200160002060009054906101000a900460ff169050919050565b60098054600181600116156101000203166002900480601f0160208091040260200160405190810160405280929190818152602001828054600181600116156101000203166002900480156117da5780601f106117af576101008083540402835291602001916117da565b820191906000526020600020905b8154815290600101906020018083116117bd57829003601f168201915b505050505081565b60006117ed826138cc565b1515611887576040517f08c379a000000000000000000000000000000000000000000000000000000000815260040180806020018281038252602c8152602001807f4552433732313a20617070726f76656420717565727920666f72206e6f6e657881526020017f697374656e7420746f6b656e000000000000000000000000000000000000000081525060400191505060405180910390fd5b6002600083815260200190815260200160002060009054906101000a900473ffffffffffffffffffffffffffffffffffffffff169050919050565b60006118cd82612233565b90508073ffffffffffffffffffffffffffffffffffffffff168373ffffffffffffffffffffffffffffffffffffffff1614151515611999576040517f08c379a00000000000000000000000000000000000000000000000000000000081526004018080602001828103825260218152602001807f4552433732313a20617070726f76616c20746f2063757272656e74206f776e6581526020017f720000000000000000000000000000000000000000000000000000000000000081525060400191505060405180910390fd5b8073ffffffffffffffffffffffffffffffffffffffff163373ffffffffffffffffffffffffffffffffffffffff1614806119d957506119d8813361307e565b5b1515611a73576040517f08c379a00000000000000000000000000000000000000000000000000000000081526004018080602001828103825260388152602001807f4552433732313a20617070726f76652063616c6c6572206973206e6f74206f7781526020017f6e6572206e6f7220617070726f76656420666f7220616c6c000000000000000081525060400191505060405180910390fd5b826002600084815260200190815260200160002060006101000a81548173ffffffffffffffffffffffffffffffffffffffff021916908373ffffffffffffffffffffffffffffffffffffffff160217905550818373ffffffffffffffffffffffffffffffffffffffff168273ffffffffffffffffffffffffffffffffffffffff167f8c5be1e5ebec7d5bd14f71427d1e84f3dd0314c0f7b2291e5b200ac8c7c3b92560405160405180910390a4505050565b600c5481565b60085481565b600d5434101580611b435750600d5434145b1515611b4e57600080fd5b3373ffffffffffffffffffffffffffffffffffffffff166006600083815260200190815260200160002060009054906101000a900473ffffffffffffffffffffffffffffffffffffffff1673ffffffffffffffffffffffffffffffffffffffff16141515611bbb57600080fd5b6000601182815481101515611bcc57fe5b9060005260206000209060040201905060018160000160008282540192505081905550600760009054906101000a900473ffffffffffffffffffffffffffffffffffffffff1673ffffffffffffffffffffffffffffffffffffffff166108fc600d549081150290604051600060405180830381858888f19350505050158015611c59573d6000803e3d6000fd5b505050565b600d5434101580611c705750600d5434145b1515611c7b57600080fd5b3373ffffffffffffffffffffffffffffffffffffffff166006600083815260200190815260200160002060009054906101000a900473ffffffffffffffffffffffffffffffffffffffff1673ffffffffffffffffffffffffffffffffffffffff16141515611ce857600080fd5b6000601182815481101515611cf957fe5b9060005260206000209060040201905060018160020160008282540192505081905550600760009054906101000a900473ffffffffffffffffffffffffffffffffffffffff1673ffffffffffffffffffffffffffffffffffffffff166108fc600d549081150290604051600060405180830381858888f19350505050158015611d86573d6000803e3d6000fd5b505050565b601181815481101515611d9a57fe5b90600052602060002090600402016000915090508060000154908060010154908060020154908060030154905084565b611dd4338261393e565b1515611e6e576040517f08c379a00000000000000000000000000000000000000000000000000000000081526004018080602001828103825260318152602001807f4552433732313a207472616e736665722063616c6c6572206973206e6f74206f81526020017f776e6572206e6f7220617070726f76656400000000000000000000000000000081525060400191505060405180910390fd5b611e79838383613a77565b505050565b600d5481565b600b60009054906101000a900460ff1681565b600d5434141515611ea757600080fd5b3373ffffffffffffffffffffffffffffffffffffffff166006600084815260200190815260200160002060009054906101000a900473ffffffffffffffffffffffffffffffffffffffff1673ffffffffffffffffffffffffffffffffffffffff16141515611f1457600080fd5b6000601283815481101515611f2557fe5b9060005260206000209060080201905081816003019080519060200190611f4d929190614340565b50600760009054906101000a900473ffffffffffffffffffffffffffffffffffffffff1673ffffffffffffffffffffffffffffffffffffffff166108fc600d549081150290604051600060405180830381858888f19350505050158015611fb8573d6000803e3d6000fd5b50505050565b600d5434141515611fce57600080fd5b3373ffffffffffffffffffffffffffffffffffffffff166006600084815260200190815260200160002060009054906101000a900473ffffffffffffffffffffffffffffffffffffffff1673ffffffffffffffffffffffffffffffffffffffff1614151561203b57600080fd5b600060128381548110151561204c57fe5b9060005260206000209060080201905081816004019080519060200190612074929190614340565b50600760009054906101000a900473ffffffffffffffffffffffffffffffffffffffff1673ffffffffffffffffffffffffffffffffffffffff166108fc600d549081150290604051600060405180830381858888f193505050501580156120df573d6000803e3d6000fd5b50505050565b6121018383836020604051908101604052806000815250612c8f565b505050565b600f5481565b600d543414151561211c57600080fd5b3373ffffffffffffffffffffffffffffffffffffffff166006600084815260200190815260200160002060009054906101000a900473ffffffffffffffffffffffffffffffffffffffff1673ffffffffffffffffffffffffffffffffffffffff1614151561218957600080fd5b600060128381548110151561219a57fe5b90600052602060002090600802019050818160020190805190602001906121c2929190614340565b50600760009054906101000a900473ffffffffffffffffffffffffffffffffffffffff1673ffffffffffffffffffffffffffffffffffffffff166108fc600d549081150290604051600060405180830381858888f1935050505015801561222d573d6000803e3d6000fd5b50505050565b6000806001600084815260200190815260200160002060009054906101000a900473ffffffffffffffffffffffffffffffffffffffff169050600073ffffffffffffffffffffffffffffffffffffffff168173ffffffffffffffffffffffffffffffffffffffff1614151515612337576040517f08c379a00000000000000000000000000000000000000000000000000000000081526004018080602001828103825260298152602001807f4552433732313a206f776e657220717565727920666f72206e6f6e657869737481526020017f656e7420746f6b656e000000000000000000000000000000000000000000000081525060400191505060405180910390fd5b80915050919050565b3373ffffffffffffffffffffffffffffffffffffffff166006600083815260200190815260200160002060009054906101000a900473ffffffffffffffffffffffffffffffffffffffff1673ffffffffffffffffffffffffffffffffffffffff161415156123ad57600080fd5b60006012828154811015156123be57fe5b906000526020600020906008020190505050565b60008073ffffffffffffffffffffffffffffffffffffffff168273ffffffffffffffffffffffffffffffffffffffff161415151561249e576040517f08c379a000000000000000000000000000000000000000000000000000000000815260040180806020018281038252602a8152602001807f4552433732313a2062616c616e636520717565727920666f7220746865207a6581526020017f726f20616464726573730000000000000000000000000000000000000000000081525060400191505060405180910390fd5b6124e5600360008473ffffffffffffffffffffffffffffffffffffffff1673ffffffffffffffffffffffffffffffffffffffff168152602001908152602001600020613d5c565b9050919050565b600d54341415156124fc57600080fd5b3373ffffffffffffffffffffffffffffffffffffffff166006600084815260200190815260200160002060009054906101000a900473ffffffffffffffffffffffffffffffffffffffff1673ffffffffffffffffffffffffffffffffffffffff1614151561256957600080fd5b600060128381548110151561257a57fe5b90600052602060002090600802019050818160010190805190602001906125a2929190614340565b50600760009054906101000a900473ffffffffffffffffffffffffffffffffffffffff1673ffffffffffffffffffffffffffffffffffffffff166108fc600d549081150290604051600060405180830381858888f1935050505015801561260d573d6000803e3d6000fd5b50505050565b600e5481565b60128181548110151561262857fe5b9060005260206000209060080201600091509050806000018054600181600116156101000203166002900480601f0160208091040260200160405190810160405280929190818152602001828054600181600116156101000203166002900480156126d45780601f106126a9576101008083540402835291602001916126d4565b820191906000526020600020905b8154815290600101906020018083116126b757829003601f168201915b505050505090806001018054600181600116156101000203166002900480601f0160208091040260200160405190810160405280929190818152602001828054600181600116156101000203166002900480156127725780601f1061274757610100808354040283529160200191612772565b820191906000526020600020905b81548152906001019060200180831161275557829003601f168201915b505050505090806002018054600181600116156101000203166002900480601f0160208091040260200160405190810160405280929190818152602001828054600181600116156101000203166002900480156128105780601f106127e557610100808354040283529160200191612810565b820191906000526020600020905b8154815290600101906020018083116127f357829003601f168201915b505050505090806003018054600181600116156101000203166002900480601f0160208091040260200160405190810160405280929190818152602001828054600181600116156101000203166002900480156128ae5780601f10612883576101008083540402835291602001916128ae565b820191906000526020600020905b81548152906001019060200180831161289157829003601f168201915b505050505090806004018054600181600116156101000203166002900480601f01602080910402602001604051908101604052809291908181526020018280546001816001161561010002031660029004801561294c5780601f106129215761010080835404028352916020019161294c565b820191906000526020600020905b81548152906001019060200180831161292f57829003601f168201915b505050505090806005018054600181600116156101000203166002900480601f0160208091040260200160405190810160405280929190818152602001828054600181600116156101000203166002900480156129ea5780601f106129bf576101008083540402835291602001916129ea565b820191906000526020600020905b8154815290600101906020018083116129cd57829003601f168201915b5050505050908060060154908060070160009054906101000a900473ffffffffffffffffffffffffffffffffffffffff16905088565b600760009054906101000a900473ffffffffffffffffffffffffffffffffffffffff1681565b600a8054600181600116156101000203166002900480601f016020809104026020016040519081016040528092919081815260200182805460018160011615610100020316600290048015612adc5780601f10612ab157610100808354040283529160200191612adc565b820191906000526020600020905b815481529060010190602001808311612abf57829003601f168201915b505050505081565b3373ffffffffffffffffffffffffffffffffffffffff168273ffffffffffffffffffffffffffffffffffffffff1614151515612b88576040517f08c379a00000000000000000000000000000000000000000000000000000000081526004018080602001828103825260198152602001807f4552433732313a20617070726f766520746f2063616c6c65720000000000000081525060200191505060405180910390fd5b80600460003373ffffffffffffffffffffffffffffffffffffffff1673ffffffffffffffffffffffffffffffffffffffff16815260200190815260200160002060008473ffffffffffffffffffffffffffffffffffffffff1673ffffffffffffffffffffffffffffffffffffffff16815260200190815260200160002060006101000a81548160ff0219169083151502179055508173ffffffffffffffffffffffffffffffffffffffff163373ffffffffffffffffffffffffffffffffffffffff167f17307eab39ab6107e8899845ad3d59bd9653f200f220920489ca2b5937696c3183604051808215151515815260200191505060405180910390a35050565b60105481565b612c9a848484611dca565b612ca684848484613d6a565b1515612d40576040517f08c379a00000000000000000000000000000000000000000000000000000000081526004018080602001828103825260328152602001807f4552433732313a207472616e7366657220746f206e6f6e20455243373231526581526020017f63656976657220696d706c656d656e746572000000000000000000000000000081525060400191505060405180910390fd5b50505050565b600e54341480612d585750600e543410155b1515612d6357600080fd5b3373ffffffffffffffffffffffffffffffffffffffff166006600084815260200190815260200160002060009054906101000a900473ffffffffffffffffffffffffffffffffffffffff1673ffffffffffffffffffffffffffffffffffffffff16141515612dd057600080fd5b6000601283815481101515612de157fe5b9060005260206000209060080201905060006005826000016040518082805460018160011615610100020316600290048015612e545780601f10612e32576101008083540402835291820191612e54565b820191906000526020600020905b815481529060010190602001808311612e40575b5050915050908152602001604051809103902060006101000a81548160ff02191690831515021790555081816000019080519060200190612e96929190614340565b5060016005836040518082805190602001908083835b602083101515612ed15780518252602082019150602081019050602083039250612eac565b6001836020036101000a038019825116818451168082178552505050505050905001915050908152602001604051809103902060006101000a81548160ff021916908315150217905550600760009054906101000a900473ffffffffffffffffffffffffffffffffffffffff1673ffffffffffffffffffffffffffffffffffffffff166108fc600d549081150290604051600060405180830381858888f19350505050158015612f85573d6000803e3d6000fd5b50505050565b600e54341480612f9d5750600e543410155b1515612fa857600080fd5b6000601282815481101515612fb957fe5b9060005260206000209060080201905060018160060160008282540192505081905550600760009054906101000a900473ffffffffffffffffffffffffffffffffffffffff1673ffffffffffffffffffffffffffffffffffffffff166108fc600f549081150290604051600060405180830381858888f19350505050158015613046573d6000803e3d6000fd5b505050565b60066020528060005260406000206000915054906101000a900473ffffffffffffffffffffffffffffffffffffffff1681565b6000600460008473ffffffffffffffffffffffffffffffffffffffff1673ffffffffffffffffffffffffffffffffffffffff16815260200190815260200160002060008373ffffffffffffffffffffffffffffffffffffffff1673ffffffffffffffffffffffffffffffffffffffff16815260200190815260200160002060009054906101000a900460ff16905092915050565b6016546008541115151561312557600080fd5b6005866040518082805190602001908083835b60208310151561315d5780518252602082019150602081019050602083039250613138565b6001836020036101000a038019825116818451168082178552505050505050905001915050908152602001604051809103902060009054906101000a900460ff161515156131aa57600080fd5b600c543414806131bc5750600c543410155b15156131c757600080fd5b601280549050601081905550601261010060405190810160405280888152602001878152602001868152602001858152602001848152602001838152602001600181526020013373ffffffffffffffffffffffffffffffffffffffff1681525090806001815401808255809150509060018203906000526020600020906008020160009091929091909150600082015181600001908051906020019061326e9291906143c0565b50602082015181600101908051906020019061328b9291906143c0565b5060408201518160020190805190602001906132a89291906143c0565b5060608201518160030190805190602001906132c59291906143c0565b5060808201518160040190805190602001906132e29291906143c0565b5060a08201518160050190805190602001906132ff9291906143c0565b5060c0820151816006015560e08201518160070160006101000a81548173ffffffffffffffffffffffffffffffffffffffff021916908373ffffffffffffffffffffffffffffffffffffffff1602179055505050506011608060405190810160405280600081526020016000815260200160008152602001600081525090806001815401808255809150509060018203906000526020600020906004020160009091929091909150600082015181600001556020820151816001015560408201518160020155606082015181600301555050506133de33601054613f8d565b6012805490506008600082825401925050819055503360066000601054815260200190815260200160002060006101000a81548173ffffffffffffffffffffffffffffffffffffffff021916908373ffffffffffffffffffffffffffffffffffffffff16021790555060016005876040518082805190602001908083835b602083101515613481578051825260208201915060208101905060208303925061345c565b6001836020036101000a038019825116818451168082178552505050505050905001915050908152602001604051809103902060006101000a81548160ff021916908315150217905550600760009054906101000a900473ffffffffffffffffffffffffffffffffffffffff1673ffffffffffffffffffffffffffffffffffffffff166108fc600c549081150290604051600060405180830381858888f19350505050158015613535573d6000803e3d6000fd5b50505050505050565b600e543414806135505750600e543410155b151561355b57600080fd5b3373ffffffffffffffffffffffffffffffffffffffff166006600084815260200190815260200160002060009054906101000a900473ffffffffffffffffffffffffffffffffffffffff1673ffffffffffffffffffffffffffffffffffffffff161415156135c857600080fd5b60006012838154811015156135d957fe5b9060005260206000209060080201905081816005019080519060200190613601929190614340565b50600760009054906101000a900473ffffffffffffffffffffffffffffffffffffffff1673ffffffffffffffffffffffffffffffffffffffff166108fc600e549081150290604051600060405180830381858888f1935050505015801561366c573d6000803e3d6000fd5b50505050565b600d54341015806136845750600d5434145b151561368f57600080fd5b3373ffffffffffffffffffffffffffffffffffffffff166006600083815260200190815260200160002060009054906101000a900473ffffffffffffffffffffffffffffffffffffffff1673ffffffffffffffffffffffffffffffffffffffff161415156136fc57600080fd5b600060118281548110151561370d57fe5b9060005260206000209060040201905060018160010160008282540192505081905550600760009054906101000a900473ffffffffffffffffffffffffffffffffffffffff1673ffffffffffffffffffffffffffffffffffffffff166108fc600d549081150290604051600060405180830381858888f1935050505015801561379a573d6000803e3d6000fd5b505050565b600d54341015806137b15750600d5434145b15156137bc57600080fd5b3373ffffffffffffffffffffffffffffffffffffffff166006600083815260200190815260200160002060009054906101000a900473ffffffffffffffffffffffffffffffffffffffff1673ffffffffffffffffffffffffffffffffffffffff1614151561382957600080fd5b600060118281548110151561383a57fe5b9060005260206000209060040201905060018160030160008282540192505081905550600760009054906101000a900473ffffffffffffffffffffffffffffffffffffffff1673ffffffffffffffffffffffffffffffffffffffff166108fc600d549081150290604051600060405180830381858888f193505050501580156138c7573d6000803e3d6000fd5b505050565b6000806001600084815260200190815260200160002060009054906101000a900473ffffffffffffffffffffffffffffffffffffffff169050600073ffffffffffffffffffffffffffffffffffffffff168173ffffffffffffffffffffffffffffffffffffffff161415915050919050565b6000613949826138cc565b15156139e3576040517f08c379a000000000000000000000000000000000000000000000000000000000815260040180806020018281038252602c8152602001807f4552433732313a206f70657261746f7220717565727920666f72206e6f6e657881526020017f697374656e7420746f6b656e000000000000000000000000000000000000000081525060400191505060405180910390fd5b60006139ee83612233565b90508073ffffffffffffffffffffffffffffffffffffffff168473ffffffffffffffffffffffffffffffffffffffff161480613a5d57508373ffffffffffffffffffffffffffffffffffffffff16613a45846117e2565b73ffffffffffffffffffffffffffffffffffffffff16145b80613a6e5750613a6d818561307e565b5b91505092915050565b8273ffffffffffffffffffffffffffffffffffffffff16613a9782612233565b73ffffffffffffffffffffffffffffffffffffffff16141515613b48576040517f08c379a00000000000000000000000000000000000000000000000000000000081526004018080602001828103825260298152602001807f4552433732313a207472616e73666572206f6620746f6b656e2074686174206981526020017f73206e6f74206f776e000000000000000000000000000000000000000000000081525060400191505060405180910390fd5b600073ffffffffffffffffffffffffffffffffffffffff168273ffffffffffffffffffffffffffffffffffffffff1614151515613c13576040517f08c379a00000000000000000000000000000000000000000000000000000000081526004018080602001828103825260248152602001807f4552433732313a207472616e7366657220746f20746865207a65726f2061646481526020017f726573730000000000000000000000000000000000000000000000000000000081525060400191505060405180910390fd5b613c1c816141a9565b613c63600360008573ffffffffffffffffffffffffffffffffffffffff1673ffffffffffffffffffffffffffffffffffffffff168152602001908152602001600020614269565b613caa600360008473ffffffffffffffffffffffffffffffffffffffff1673ffffffffffffffffffffffffffffffffffffffff16815260200190815260200160002061428c565b816001600083815260200190815260200160002060006101000a81548173ffffffffffffffffffffffffffffffffffffffff021916908373ffffffffffffffffffffffffffffffffffffffff160217905550808273ffffffffffffffffffffffffffffffffffffffff168473ffffffffffffffffffffffffffffffffffffffff167fddf252ad1be2c89b69c2b068fc378daa952ba7f163c4a11628f55a4df523b3ef60405160405180910390a4505050565b600081600001549050919050565b6000613d8b8473ffffffffffffffffffffffffffffffffffffffff166142a2565b1515613d9a5760019050613f85565b60008473ffffffffffffffffffffffffffffffffffffffff1663150b7a02338887876040518563ffffffff167c0100000000000000000000000000000000000000000000000000000000028152600401808573ffffffffffffffffffffffffffffffffffffffff1673ffffffffffffffffffffffffffffffffffffffff1681526020018473ffffffffffffffffffffffffffffffffffffffff1673ffffffffffffffffffffffffffffffffffffffff16815260200183815260200180602001828103825283818151815260200191508051906020019080838360005b83811015613e91578082015181840152602081019050613e76565b50505050905090810190601f168015613ebe5780820380516001836020036101000a031916815260200191505b5095505050505050602060405180830381600087803b158015613ee057600080fd5b505af1158015613ef4573d6000803e3d6000fd5b505050506040513d6020811015613f0a57600080fd5b8101908080519060200190929190505050905063150b7a027c0100000000000000000000000000000000000000000000000000000000027bffffffffffffffffffffffffffffffffffffffffffffffffffffffff1916817bffffffffffffffffffffffffffffffffffffffffffffffffffffffff1916149150505b949350505050565b600073ffffffffffffffffffffffffffffffffffffffff168273ffffffffffffffffffffffffffffffffffffffff1614151515614032576040517f08c379a00000000000000000000000000000000000000000000000000000000081526004018080602001828103825260208152602001807f4552433732313a206d696e7420746f20746865207a65726f206164647265737381525060200191505060405180910390fd5b61403b816138cc565b1515156140b0576040517f08c379a000000000000000000000000000000000000000000000000000000000815260040180806020018281038252601c8152602001807f4552433732313a20746f6b656e20616c7265616479206d696e7465640000000081525060200191505060405180910390fd5b816001600083815260200190815260200160002060006101000a81548173ffffffffffffffffffffffffffffffffffffffff021916908373ffffffffffffffffffffffffffffffffffffffff160217905550614149600360008473ffffffffffffffffffffffffffffffffffffffff1673ffffffffffffffffffffffffffffffffffffffff16815260200190815260200160002061428c565b808273ffffffffffffffffffffffffffffffffffffffff16600073ffffffffffffffffffffffffffffffffffffffff167fddf252ad1be2c89b69c2b068fc378daa952ba7f163c4a11628f55a4df523b3ef60405160405180910390a45050565b600073ffffffffffffffffffffffffffffffffffffffff166002600083815260200190815260200160002060009054906101000a900473ffffffffffffffffffffffffffffffffffffffff1673ffffffffffffffffffffffffffffffffffffffff161415156142665760006002600083815260200190815260200160002060006101000a81548173ffffffffffffffffffffffffffffffffffffffff021916908373ffffffffffffffffffffffffffffffffffffffff1602179055505b50565b614281600182600001546142b590919063ffffffff16565b816000018190555050565b6001816000016000828254019250508190555050565b600080823b905060008111915050919050565b600082821115151561432f576040517f08c379a000000000000000000000000000000000000000000000000000000000815260040180806020018281038252601e8152602001807f536166654d6174683a207375627472616374696f6e206f766572666c6f77000081525060200191505060405180910390fd5b600082840390508091505092915050565b828054600181600116156101000203166002900490600052602060002090601f016020900481019282601f1061438157805160ff19168380011785556143af565b828001600101855582156143af579182015b828111156143ae578251825591602001919060010190614393565b5b5090506143bc9190614440565b5090565b828054600181600116156101000203166002900490600052602060002090601f016020900481019282601f1061440157805160ff191683800117855561442f565b8280016001018555821561442f579182015b8281111561442e578251825591602001919060010190614413565b5b50905061443c9190614440565b5090565b61446291905b8082111561445e576000816000905550600101614446565b5090565b9056fea165627a7a72305820ee8c26b96345c6f68caecbea098eeea143bc6eac51485f69a99c941bdd6088430029",
  "source": "pragma solidity 0.5.0;\n\nimport \"./erc721full.sol\";\n\ncontract Color is ERC721 {\n\n\n  mapping(string => bool) _botNameExists;\n  \n   mapping (uint => address) public monstersIndexToAddress;\n    \n   address payable public owner;// address is payable\n   uint256 public totalSupply;\n  string public name;\n    string public symbol;\n    uint8 public decimals;\n  uint256 public claimPrice = 0.03 ether; //8-10$ at time of coding swutch to bnb prices whe on bnb\n          uint256 public changeItemPrice = 0.3 ether; //80 cnets\n         \n          uint256 public changePrice = 0.0003 ether;// 10 cent\n          uint256 public likesPrice = 0.0001 ether; //3 cents;\n\n     uint public id ;\n      simWearables[] public sims; //sim wearables\n Digitmon[] public digitmon; // where all sims go \n uint level;\n uint health;\n string weapon;\n \n struct simWearables{  // items people can buy for their sims/ can be place within block\n       uint a;\n       uint b;\n       uint c;\n       uint d;\n       \n       \n   }\n \n\n struct Digitmon{   //all the sims\n     \n         string name; //mintabel\n        string gender;\n        string hairColor;\n        string eyeColor;\n       string  headColor;\n       string secret;\n       uint likes;\n      address payable simowner;\n\n    \n    \n       \n      \n }\n \n   constructor() public\n   {\n       owner = msg.sender;\n      name = \"Crypto Sims\";                          // Set the name for display purposes\n       symbol = \"SIMS\";                               // Set the symbol for display purposes\n       decimals = 0; \n    }\n    \n    \n // constructor() ERC721Full(\"Crypto Sims\", \"SIMS\") public {\n         \n // }\n\n uint maxSims = 100000; //100k\n\n  //only creater makes people\n  function mint(string memory _name, string memory _gender, string memory _haircolor, string memory _eyecolor, string memory _headcolor, string memory _secret) public payable {\n  require( totalSupply <= maxSims);// 100k sims can only be created\n    require(!_botNameExists[_name]);\n     // require(msg.sender == owner) ; \n    require(msg.value == claimPrice || msg.value >= claimPrice );  \n   id = digitmon.length;\n    digitmon.push(Digitmon(_name, _gender, _haircolor, _eyecolor, _headcolor, _secret,1, msg.sender));\n     sims.push(simWearables(0,0,0,0));\n   _mint(msg.sender, id);//create them but dont mint here\n   \n    totalSupply += digitmon.length;//update total supply\n    monstersIndexToAddress[id] = msg.sender;//put address of minter inside here\n    _botNameExists[_name] = true;\n     owner.transfer(claimPrice );\n  }\n  \n  //make payable\n     function changeName(uint _id, string memory _name) public payable{\n          require(msg.value == changePrice || msg.value >= changePrice); \n            \n       require(monstersIndexToAddress[_id] == msg.sender);//check if address of sender is equal to the id\n        Digitmon  storage userDigitMon = digitmon[_id];\n         _botNameExists[userDigitMon.name] = false;// remove old name so others can use it \n        \n        userDigitMon.name = _name;\n        _botNameExists[_name] = true;// re add new name\n          owner.transfer(changeItemPrice );\n  }\n\n\n    //make payable\n     function changeGender(uint _id, string memory _g) public payable{\n          require(msg.value == changeItemPrice); \n       require(monstersIndexToAddress[_id] == msg.sender);//check if address of sender is equal to the id\n        Digitmon  storage userDigitMon = digitmon[_id];\n        userDigitMon.gender = _g;\n          owner.transfer(changeItemPrice );\n        \n  }\n\n//make payable\n     function changeHair(uint _id, string memory _h) public payable{\n          require(msg.value == changeItemPrice); \n       require(monstersIndexToAddress[_id] == msg.sender);//check if address of sender is equal to the id\n        Digitmon  storage userDigitMon = digitmon[_id];\n        userDigitMon.hairColor = _h;\n          owner.transfer(changeItemPrice );\n  }\n\n//make payable\n     function changeEye(uint _id, string memory _e) public payable{\n          require(msg.value == changeItemPrice); \n       require(monstersIndexToAddress[_id] == msg.sender);//check if address of sender is equal to the id\n        Digitmon  storage userDigitMon = digitmon[_id];\n        userDigitMon.eyeColor = _e;\n        owner.transfer(changeItemPrice );\n  }\n  \n  //make payable\n     function changeHead(uint _id, string memory _headcolor) public payable{\n          require(msg.value == changeItemPrice); \n       require(monstersIndexToAddress[_id] == msg.sender);//check if address of sender is equal to the id\n        Digitmon  storage userDigitMon = digitmon[_id];\n        userDigitMon.headColor = _headcolor;\n        owner.transfer(changeItemPrice );\n  }\n\n\n \n  //make payable\n     function changeSecret(uint _id, string memory _secret) public payable{\n            require(msg.value == changePrice || msg.value >= changePrice); \n       require(monstersIndexToAddress[_id] == msg.sender);//check if address of sender is equal to the id\n        Digitmon  storage userDigitMon = digitmon[_id];\n        userDigitMon.secret = _secret;\n        owner.transfer(changePrice );\n  }\n\n\n  //make payable\n     function giveLike(uint _id) public payable{\n           require(msg.value == changePrice || msg.value >= changePrice);\n      // require(monstersIndexToAddress[_id] == msg.sender);//check if address of sender is equal to the id\n        Digitmon  storage userDigitMon = digitmon[_id];\n        userDigitMon.likes += 1;\n        owner.transfer(likesPrice);\n  }\n\n\n\n  //make payable\n     function equipA(uint _id) public payable{\n          require(msg.value >= changeItemPrice || msg.value == changeItemPrice); \n       require(monstersIndexToAddress[_id] == msg.sender);//check if address of sender is equal to the id\n        simWearables  storage simbag = sims[_id];\n        simbag.a += 1;\n        owner.transfer(changeItemPrice);\n  }\n\n  //make payable\n     function equipB(uint _id) public payable{\n            require(msg.value >= changeItemPrice || msg.value == changeItemPrice);  \n       require(monstersIndexToAddress[_id] == msg.sender);//check if address of sender is equal to the id\n        simWearables  storage simbag = sims[_id];\n        simbag.b += 1;\n        owner.transfer(changeItemPrice);\n  }\n\n//make payable\n     function equipC(uint _id) public payable{\n          require(msg.value >= changeItemPrice || msg.value == changeItemPrice);  \n       require(monstersIndexToAddress[_id] == msg.sender);//check if address of sender is equal to the id\n        simWearables  storage simbag = sims[_id];\n        simbag.c += 1;\n        owner.transfer(changeItemPrice);\n  }\n\n  \n  //make payable\n     function equipD(uint _id) public payable{\n           require(msg.value >= changeItemPrice || msg.value == changeItemPrice); \n       require(monstersIndexToAddress[_id] == msg.sender);//check if address of sender is equal to the id\n        simWearables  storage simbag = sims[_id];\n        simbag.d += 1;\n        owner.transfer(changeItemPrice);\n  }\n\n  \n  \n  \n  \n  \n  \n    // train your bot\n    function Train_Digimon(uint _id) public {\n       //require(msg.value != claimPrice) ;  \n       \n    require(monstersIndexToAddress[_id] == msg.sender);//check if address of sender is equal to the id\n    \n    \n    Digitmon  storage userDigitMon = digitmon[_id];\n     \n    //  userDigitMon.level += 1;\n     //  userDigitMon.health += 110;\n      //  userDigitMon.powerLevel += 110;\n        //check levels can train and grow levels until level 50\n     //   if(userDigitMon.level == 5){\n      //      userDigitMon.weapon = \"Plasma Ray\";\n      /////  }\n       // if(userDigitMon.level == 10){\n        //    userDigitMon.weapon = \"Crystal Suit\";\n      //  }\n       \n       \n    //  owner.transfer(claimPrice);\n         // DigitMon.digitmon[].level++;\n        \n          \n    }\n  \n\n\n  \n   \n}",
  "sourcePath": "C:/Users/rcan/Desktop/nft-master/src/contracts/Color.sol",
  "compiler": {
    "name": "solc",
    "version": "0.5.0+commit.1d4f565a.Emscripten.clang"
  },
  "schemaVersion": "3.0.1",
  "updatedAt": "2021-03-12T05:08:42.703Z",
  "devdoc": {
    "methods": {
      "approve(address,uint256)": {
        "details": "Approves another address to transfer the given token ID The zero address indicates there is no approved address. There can only be one approved address per token at a given time. Can only be called by the token owner or an approved operator.",
        "params": {
          "to": "address to be approved for the given token ID",
          "tokenId": "uint256 ID of the token to be approved"
        }
      },
      "balanceOf(address)": {
        "details": "Gets the balance of the specified address.",
        "params": {
          "owner": "address to query the balance of"
        },
        "return": "uint256 representing the amount owned by the passed address"
      },
      "getApproved(uint256)": {
        "details": "Gets the approved address for a token ID, or zero if no address set Reverts if the token ID does not exist.",
        "params": {
          "tokenId": "uint256 ID of the token to query the approval of"
        },
        "return": "address currently approved for the given token ID"
      },
      "isApprovedForAll(address,address)": {
        "details": "Tells whether an operator is approved by a given owner.",
        "params": {
          "operator": "operator address which you want to query the approval of",
          "owner": "owner address which you want to query the approval of"
        },
        "return": "bool whether the given operator is approved by the given owner"
      },
      "ownerOf(uint256)": {
        "details": "Gets the owner of the specified token ID.",
        "params": {
          "tokenId": "uint256 ID of the token to query the owner of"
        },
        "return": "address currently marked as the owner of the given token ID"
      },
      "safeTransferFrom(address,address,uint256)": {
        "details": "Safely transfers the ownership of a given token ID to another address If the target address is a contract, it must implement `onERC721Received`, which is called upon a safe transfer, and return the magic value `bytes4(keccak256(\"onERC721Received(address,address,uint256,bytes)\"))`; otherwise, the transfer is reverted. Requires the msg.sender to be the owner, approved, or operator",
        "params": {
          "from": "current owner of the token",
          "to": "address to receive the ownership of the given token ID",
          "tokenId": "uint256 ID of the token to be transferred"
        }
      },
      "safeTransferFrom(address,address,uint256,bytes)": {
        "details": "Safely transfers the ownership of a given token ID to another address If the target address is a contract, it must implement `onERC721Received`, which is called upon a safe transfer, and return the magic value `bytes4(keccak256(\"onERC721Received(address,address,uint256,bytes)\"))`; otherwise, the transfer is reverted. Requires the msg.sender to be the owner, approved, or operator",
        "params": {
          "_data": "bytes data to send along with a safe transfer check",
          "from": "current owner of the token",
          "to": "address to receive the ownership of the given token ID",
          "tokenId": "uint256 ID of the token to be transferred"
        }
      },
      "setApprovalForAll(address,bool)": {
        "details": "Sets or unsets the approval of a given operator An operator is allowed to transfer all tokens of the sender on their behalf.",
        "params": {
          "approved": "representing the status of the approval to be set",
          "to": "operator address to set the approval"
        }
      },
      "supportsInterface(bytes4)": {
        "details": "See `IERC165.supportsInterface`.     * Time complexity O(1), guaranteed to always use less than 30 000 gas."
      },
      "transferFrom(address,address,uint256)": {
        "details": "Transfers the ownership of a given token ID to another address. Usage of this method is discouraged, use `safeTransferFrom` whenever possible. Requires the msg.sender to be the owner, approved, or operator.",
        "params": {
          "from": "current owner of the token",
          "to": "address to receive the ownership of the given token ID",
          "tokenId": "uint256 ID of the token to be transferred"
        }
      }
    }
  },
  "userdoc": {
    "methods": {}
  }
}