{
  "contractName": "CryptoSims",
  "abi": [
    {
      "constant": true,
      "inputs": [
        {
          "name": "interfaceId",
          "type": "bytes4"
        }
      ],
      "name": "supportsInterface",
      "outputs": [
        {
          "name": "",
          "type": "bool"
        }
      ],
      "payable": false,
      "stateMutability": "view",
      "type": "function"
    },
    {
      "constant": true,
      "inputs": [],
      "name": "name",
      "outputs": [
        {
          "name": "",
          "type": "string"
        }
      ],
      "payable": false,
      "stateMutability": "view",
      "type": "function"
    },
    {
      "constant": true,
      "inputs": [
        {
          "name": "tokenId",
          "type": "uint256"
        }
      ],
      "name": "getApproved",
      "outputs": [
        {
          "name": "",
          "type": "address"
        }
      ],
      "payable": false,
      "stateMutability": "view",
      "type": "function"
    },
    {
      "constant": false,
      "inputs": [
        {
          "name": "to",
          "type": "address"
        },
        {
          "name": "tokenId",
          "type": "uint256"
        }
      ],
      "name": "approve",
      "outputs": [],
      "payable": false,
      "stateMutability": "nonpayable",
      "type": "function"
    },
    {
      "constant": true,
      "inputs": [],
      "name": "claimPrice",
      "outputs": [
        {
          "name": "",
          "type": "uint256"
        }
      ],
      "payable": false,
      "stateMutability": "view",
      "type": "function"
    },
    {
      "constant": true,
      "inputs": [],
      "name": "totalSupply",
      "outputs": [
        {
          "name": "",
          "type": "uint256"
        }
      ],
      "payable": false,
      "stateMutability": "view",
      "type": "function"
    },
    {
      "constant": true,
      "inputs": [],
      "name": "claimFirst60k",
      "outputs": [
        {
          "name": "",
          "type": "uint256"
        }
      ],
      "payable": false,
      "stateMutability": "view",
      "type": "function"
    },
    {
      "constant": true,
      "inputs": [
        {
          "name": "",
          "type": "uint256"
        }
      ],
      "name": "sims",
      "outputs": [
        {
          "name": "a",
          "type": "uint256"
        },
        {
          "name": "b",
          "type": "uint256"
        },
        {
          "name": "c",
          "type": "uint256"
        },
        {
          "name": "d",
          "type": "uint256"
        },
        {
          "name": "originalOwner",
          "type": "address"
        }
      ],
      "payable": false,
      "stateMutability": "view",
      "type": "function"
    },
    {
      "constant": true,
      "inputs": [],
      "name": "claimFirst100",
      "outputs": [
        {
          "name": "",
          "type": "uint256"
        }
      ],
      "payable": false,
      "stateMutability": "view",
      "type": "function"
    },
    {
      "constant": false,
      "inputs": [
        {
          "name": "from",
          "type": "address"
        },
        {
          "name": "to",
          "type": "address"
        },
        {
          "name": "tokenId",
          "type": "uint256"
        }
      ],
      "name": "transferFrom",
      "outputs": [],
      "payable": false,
      "stateMutability": "nonpayable",
      "type": "function"
    },
    {
      "constant": true,
      "inputs": [],
      "name": "changeItemPrice",
      "outputs": [
        {
          "name": "",
          "type": "uint256"
        }
      ],
      "payable": false,
      "stateMutability": "view",
      "type": "function"
    },
    {
      "constant": true,
      "inputs": [],
      "name": "decimals",
      "outputs": [
        {
          "name": "",
          "type": "uint8"
        }
      ],
      "payable": false,
      "stateMutability": "view",
      "type": "function"
    },
    {
      "constant": true,
      "inputs": [],
      "name": "claimFirst900",
      "outputs": [
        {
          "name": "",
          "type": "uint256"
        }
      ],
      "payable": false,
      "stateMutability": "view",
      "type": "function"
    },
    {
      "constant": true,
      "inputs": [],
      "name": "claimFirst70k",
      "outputs": [
        {
          "name": "",
          "type": "uint256"
        }
      ],
      "payable": false,
      "stateMutability": "view",
      "type": "function"
    },
    {
      "constant": true,
      "inputs": [],
      "name": "claimFirst30k",
      "outputs": [
        {
          "name": "",
          "type": "uint256"
        }
      ],
      "payable": false,
      "stateMutability": "view",
      "type": "function"
    },
    {
      "constant": true,
      "inputs": [],
      "name": "claimFirst90k",
      "outputs": [
        {
          "name": "",
          "type": "uint256"
        }
      ],
      "payable": false,
      "stateMutability": "view",
      "type": "function"
    },
    {
      "constant": false,
      "inputs": [
        {
          "name": "from",
          "type": "address"
        },
        {
          "name": "to",
          "type": "address"
        },
        {
          "name": "tokenId",
          "type": "uint256"
        }
      ],
      "name": "safeTransferFrom",
      "outputs": [],
      "payable": false,
      "stateMutability": "nonpayable",
      "type": "function"
    },
    {
      "constant": true,
      "inputs": [],
      "name": "user",
      "outputs": [
        {
          "name": "",
          "type": "address"
        }
      ],
      "payable": false,
      "stateMutability": "view",
      "type": "function"
    },
    {
      "constant": true,
      "inputs": [],
      "name": "likesPrice",
      "outputs": [
        {
          "name": "",
          "type": "uint256"
        }
      ],
      "payable": false,
      "stateMutability": "view",
      "type": "function"
    },
    {
      "constant": true,
      "inputs": [
        {
          "name": "tokenId",
          "type": "uint256"
        }
      ],
      "name": "ownerOf",
      "outputs": [
        {
          "name": "",
          "type": "address"
        }
      ],
      "payable": false,
      "stateMutability": "view",
      "type": "function"
    },
    {
      "constant": true,
      "inputs": [],
      "name": "claimFirst20k",
      "outputs": [
        {
          "name": "",
          "type": "uint256"
        }
      ],
      "payable": false,
      "stateMutability": "view",
      "type": "function"
    },
    {
      "constant": true,
      "inputs": [
        {
          "name": "owner",
          "type": "address"
        }
      ],
      "name": "balanceOf",
      "outputs": [
        {
          "name": "",
          "type": "uint256"
        }
      ],
      "payable": false,
      "stateMutability": "view",
      "type": "function"
    },
    {
      "constant": true,
      "inputs": [],
      "name": "claimFirst9k",
      "outputs": [
        {
          "name": "",
          "type": "uint256"
        }
      ],
      "payable": false,
      "stateMutability": "view",
      "type": "function"
    },
    {
      "constant": true,
      "inputs": [],
      "name": "changePrice",
      "outputs": [
        {
          "name": "",
          "type": "uint256"
        }
      ],
      "payable": false,
      "stateMutability": "view",
      "type": "function"
    },
    {
      "constant": true,
      "inputs": [
        {
          "name": "",
          "type": "uint256"
        }
      ],
      "name": "digitmon",
      "outputs": [
        {
          "name": "name",
          "type": "string"
        },
        {
          "name": "gender",
          "type": "string"
        },
        {
          "name": "hairColor",
          "type": "string"
        },
        {
          "name": "eyeColor",
          "type": "string"
        },
        {
          "name": "headColor",
          "type": "string"
        },
        {
          "name": "secret",
          "type": "string"
        },
        {
          "name": "likes",
          "type": "uint256"
        },
        {
          "name": "simowner",
          "type": "address"
        }
      ],
      "payable": false,
      "stateMutability": "view",
      "type": "function"
    },
    {
      "constant": true,
      "inputs": [],
      "name": "owner",
      "outputs": [
        {
          "name": "",
          "type": "address"
        }
      ],
      "payable": false,
      "stateMutability": "view",
      "type": "function"
    },
    {
      "constant": true,
      "inputs": [],
      "name": "claimFirst80k",
      "outputs": [
        {
          "name": "",
          "type": "uint256"
        }
      ],
      "payable": false,
      "stateMutability": "view",
      "type": "function"
    },
    {
      "constant": true,
      "inputs": [],
      "name": "symbol",
      "outputs": [
        {
          "name": "",
          "type": "string"
        }
      ],
      "payable": false,
      "stateMutability": "view",
      "type": "function"
    },
    {
      "constant": true,
      "inputs": [],
      "name": "claimlast10k",
      "outputs": [
        {
          "name": "",
          "type": "uint256"
        }
      ],
      "payable": false,
      "stateMutability": "view",
      "type": "function"
    },
    {
      "constant": false,
      "inputs": [
        {
          "name": "to",
          "type": "address"
        },
        {
          "name": "approved",
          "type": "bool"
        }
      ],
      "name": "setApprovalForAll",
      "outputs": [],
      "payable": false,
      "stateMutability": "nonpayable",
      "type": "function"
    },
    {
      "constant": true,
      "inputs": [],
      "name": "claimFirst40k",
      "outputs": [
        {
          "name": "",
          "type": "uint256"
        }
      ],
      "payable": false,
      "stateMutability": "view",
      "type": "function"
    },
    {
      "constant": true,
      "inputs": [],
      "name": "id",
      "outputs": [
        {
          "name": "",
          "type": "uint256"
        }
      ],
      "payable": false,
      "stateMutability": "view",
      "type": "function"
    },
    {
      "constant": false,
      "inputs": [
        {
          "name": "from",
          "type": "address"
        },
        {
          "name": "to",
          "type": "address"
        },
        {
          "name": "tokenId",
          "type": "uint256"
        },
        {
          "name": "_data",
          "type": "bytes"
        }
      ],
      "name": "safeTransferFrom",
      "outputs": [],
      "payable": false,
      "stateMutability": "nonpayable",
      "type": "function"
    },
    {
      "constant": true,
      "inputs": [],
      "name": "secretPrice",
      "outputs": [
        {
          "name": "",
          "type": "uint256"
        }
      ],
      "payable": false,
      "stateMutability": "view",
      "type": "function"
    },
    {
      "constant": true,
      "inputs": [],
      "name": "claimFirst50k",
      "outputs": [
        {
          "name": "",
          "type": "uint256"
        }
      ],
      "payable": false,
      "stateMutability": "view",
      "type": "function"
    },
    {
      "constant": true,
      "inputs": [
        {
          "name": "",
          "type": "uint256"
        }
      ],
      "name": "monstersIndexToAddress",
      "outputs": [
        {
          "name": "",
          "type": "address"
        }
      ],
      "payable": false,
      "stateMutability": "view",
      "type": "function"
    },
    {
      "constant": true,
      "inputs": [
        {
          "name": "owner",
          "type": "address"
        },
        {
          "name": "operator",
          "type": "address"
        }
      ],
      "name": "isApprovedForAll",
      "outputs": [
        {
          "name": "",
          "type": "bool"
        }
      ],
      "payable": false,
      "stateMutability": "view",
      "type": "function"
    },
    {
      "inputs": [],
      "payable": false,
      "stateMutability": "nonpayable",
      "type": "constructor"
    },
    {
      "anonymous": false,
      "inputs": [
        {
          "indexed": true,
          "name": "from",
          "type": "address"
        },
        {
          "indexed": true,
          "name": "to",
          "type": "address"
        },
        {
          "indexed": true,
          "name": "tokenId",
          "type": "uint256"
        }
      ],
      "name": "Transfer",
      "type": "event"
    },
    {
      "anonymous": false,
      "inputs": [
        {
          "indexed": true,
          "name": "owner",
          "type": "address"
        },
        {
          "indexed": true,
          "name": "approved",
          "type": "address"
        },
        {
          "indexed": true,
          "name": "tokenId",
          "type": "uint256"
        }
      ],
      "name": "Approval",
      "type": "event"
    },
    {
      "anonymous": false,
      "inputs": [
        {
          "indexed": true,
          "name": "owner",
          "type": "address"
        },
        {
          "indexed": true,
          "name": "operator",
          "type": "address"
        },
        {
          "indexed": false,
          "name": "approved",
          "type": "bool"
        }
      ],
      "name": "ApprovalForAll",
      "type": "event"
    },
    {
      "constant": false,
      "inputs": [
        {
          "name": "_name",
          "type": "string"
        },
        {
          "name": "_gender",
          "type": "string"
        },
        {
          "name": "_haircolor",
          "type": "string"
        },
        {
          "name": "_eyecolor",
          "type": "string"
        },
        {
          "name": "_headcolor",
          "type": "string"
        },
        {
          "name": "_secret",
          "type": "string"
        }
      ],
      "name": "mint",
      "outputs": [],
      "payable": true,
      "stateMutability": "payable",
      "type": "function"
    },
    {
      "constant": false,
      "inputs": [
        {
          "name": "_id",
          "type": "uint256"
        },
        {
          "name": "_name",
          "type": "string"
        }
      ],
      "name": "changeName",
      "outputs": [],
      "payable": true,
      "stateMutability": "payable",
      "type": "function"
    },
    {
      "constant": false,
      "inputs": [
        {
          "name": "_id",
          "type": "uint256"
        }
      ],
      "name": "changeSimOwnerAddress",
      "outputs": [],
      "payable": true,
      "stateMutability": "payable",
      "type": "function"
    },
    {
      "constant": false,
      "inputs": [
        {
          "name": "_id",
          "type": "uint256"
        },
        {
          "name": "_g",
          "type": "string"
        }
      ],
      "name": "changeGender",
      "outputs": [],
      "payable": true,
      "stateMutability": "payable",
      "type": "function"
    },
    {
      "constant": false,
      "inputs": [
        {
          "name": "_id",
          "type": "uint256"
        },
        {
          "name": "_h",
          "type": "string"
        }
      ],
      "name": "changeHair",
      "outputs": [],
      "payable": true,
      "stateMutability": "payable",
      "type": "function"
    },
    {
      "constant": false,
      "inputs": [
        {
          "name": "_id",
          "type": "uint256"
        },
        {
          "name": "_e",
          "type": "string"
        }
      ],
      "name": "changeEye",
      "outputs": [],
      "payable": true,
      "stateMutability": "payable",
      "type": "function"
    },
    {
      "constant": false,
      "inputs": [
        {
          "name": "_id",
          "type": "uint256"
        },
        {
          "name": "_headcolor",
          "type": "string"
        }
      ],
      "name": "changeHead",
      "outputs": [],
      "payable": true,
      "stateMutability": "payable",
      "type": "function"
    },
    {
      "constant": false,
      "inputs": [
        {
          "name": "_id",
          "type": "uint256"
        },
        {
          "name": "_secret",
          "type": "string"
        }
      ],
      "name": "changeSecret",
      "outputs": [],
      "payable": true,
      "stateMutability": "payable",
      "type": "function"
    },
    {
      "constant": false,
      "inputs": [
        {
          "name": "_id",
          "type": "uint256"
        }
      ],
      "name": "giveLike",
      "outputs": [],
      "payable": true,
      "stateMutability": "payable",
      "type": "function"
    },
    {
      "constant": false,
      "inputs": [
        {
          "name": "_id",
          "type": "uint256"
        },
        {
          "name": "_secret",
          "type": "string"
        }
      ],
      "name": "changeOthersSecret",
      "outputs": [],
      "payable": true,
      "stateMutability": "payable",
      "type": "function"
    },
    {
      "constant": false,
      "inputs": [
        {
          "name": "_id",
          "type": "uint256"
        }
      ],
      "name": "equipA",
      "outputs": [],
      "payable": true,
      "stateMutability": "payable",
      "type": "function"
    },
    {
      "constant": false,
      "inputs": [
        {
          "name": "_id",
          "type": "uint256"
        }
      ],
      "name": "equipB",
      "outputs": [],
      "payable": true,
      "stateMutability": "payable",
      "type": "function"
    },
    {
      "constant": false,
      "inputs": [
        {
          "name": "_id",
          "type": "uint256"
        }
      ],
      "name": "equipC",
      "outputs": [],
      "payable": true,
      "stateMutability": "payable",
      "type": "function"
    },
    {
      "constant": false,
      "inputs": [
        {
          "name": "_id",
          "type": "uint256"
        }
      ],
      "name": "equipD",
      "outputs": [],
      "payable": true,
      "stateMutability": "payable",
      "type": "function"
    },
    {
      "constant": false,
      "inputs": [],
      "name": "withdrawGds",
      "outputs": [],
      "payable": true,
      "stateMutability": "payable",
      "type": "function"
    }
  ],
  "bytecode": "0x608060405266b1a2bc2ec50000600c5567016345785d8a0000600d556706f05b59d3b20000600e55674563918244f40000600f556801158e460913d0000060105568056bc75e2d63100000601155681b1ae4d6e2ef500000601255686c6b935b8bbd40000060135569021e19e0c9bab2400000601455690a968163f0a57b400000601555692a5a058fc295ed00000060165569d3c21bcecceda1000000601755620186a06018556706f05b59d3b20000601955670de0b6b3a7640000601a55660110d9316ec000601b55655af3107a4000601c55670de0b6b3a7640000601d55348015620000ec57600080fd5b506200012a6301ffc9a77c01000000000000000000000000000000000000000000000000000000000262000266640100000000026401000000009004565b620001676380ac58cd7c01000000000000000000000000000000000000000000000000000000000262000266640100000000026401000000009004565b33600760006101000a81548173ffffffffffffffffffffffffffffffffffffffff021916908373ffffffffffffffffffffffffffffffffffffffff1602179055506040805190810160405280600b81526020017f43727970746f2053696d7300000000000000000000000000000000000000000081525060099080519060200190620001f59291906200038d565b506040805190810160405280600481526020017f53494d5300000000000000000000000000000000000000000000000000000000815250600a9080519060200190620002439291906200038d565b506000600b60006101000a81548160ff021916908360ff1602179055506200043c565b63ffffffff7c010000000000000000000000000000000000000000000000000000000002817bffffffffffffffffffffffffffffffffffffffffffffffffffffffff19161415151562000321576040517f08c379a000000000000000000000000000000000000000000000000000000000815260040180806020018281038252601c8152602001807f4552433136353a20696e76616c696420696e746572666163652069640000000081525060200191505060405180910390fd5b6001600080837bffffffffffffffffffffffffffffffffffffffffffffffffffffffff19167bffffffffffffffffffffffffffffffffffffffffffffffffffffffff1916815260200190815260200160002060006101000a81548160ff02191690831515021790555050565b828054600181600116156101000203166002900490600052602060002090601f016020900481019282601f10620003d057805160ff191683800117855562000401565b8280016001018555821562000401579182015b8281111562000400578251825591602001919060010190620003e3565b5b50905062000410919062000414565b5090565b6200043991905b80821115620004355760008160009055506001016200041b565b5090565b90565b615408806200044c6000396000f3fe608060405260043610610272576000357c0100000000000000000000000000000000000000000000000000000000900463ffffffff16806301ffc9a71461027757806306fdde03146102e9578063081812fc14610379578063095ea7b3146103f457806315d655c91461044f57806318160ddd1461047a57806319a550c5146104a557806319e1ad91146104d05780631ad24fbc146104fe5780631e4e704b1461052c57806322abf190146105c357806323b872dd146105ee5780632b44da2e1461066957806330acedc914610673578063313ce5671461069e5780633158d712146106cf57806335c16df61461079457806337e8ea56146107bf578063384032f5146107ea5780633b305641146108155780633cbeac4d1461084057806342842e0e146109055780634f8632ba146109805780635b44164e146109d7578063600a850d14610a025780636352211e14610ac7578063648a3c4114610b425780636d5fdfbb14610b7057806370a0823114610b9b578063776e234214610c005780637d6510ed14610cc557806381b6e8e314610cf05780638cefe11014610d1b5780638da5cb5b1461102557806392e7a02a1461107c5780639531927a146110a757806395d89b411461116c5780639789a9a1146111fc578063a22cb46514611227578063a9ff7eca14611284578063af640d0f146112af578063b88d4fde146112da578063c39cbef1146113ec578063cf078d9a146114b1578063d07fa862146114dc578063d192e5721461150a578063d4b2f25214611535578063e985e9c5146115b0578063ef5f5c0e14611639578063f1756038146119e7578063f314c77014611aac578063f6a85b7914611ada575b600080fd5b34801561028357600080fd5b506102cf6004803603602081101561029a57600080fd5b8101908080357bffffffffffffffffffffffffffffffffffffffffffffffffffffffff19169060200190929190505050611b08565b604051808215151515815260200191505060405180910390f35b3480156102f557600080fd5b506102fe611b6f565b6040518080602001828103825283818151815260200191508051906020019080838360005b8381101561033e578082015181840152602081019050610323565b50505050905090810190601f16801561036b5780820380516001836020036101000a031916815260200191505b509250505060405180910390f35b34801561038557600080fd5b506103b26004803603602081101561039c57600080fd5b8101908080359060200190929190505050611c0d565b604051808273ffffffffffffffffffffffffffffffffffffffff1673ffffffffffffffffffffffffffffffffffffffff16815260200191505060405180910390f35b34801561040057600080fd5b5061044d6004803603604081101561041757600080fd5b81019080803573ffffffffffffffffffffffffffffffffffffffff16906020019092919080359060200190929190505050611ced565b005b34801561045b57600080fd5b50610464611f50565b6040518082815260200191505060405180910390f35b34801561048657600080fd5b5061048f611f56565b6040518082815260200191505060405180910390f35b3480156104b157600080fd5b506104ba611f5c565b6040518082815260200191505060405180910390f35b6104fc600480360360208110156104e657600080fd5b8101908080359060200190929190505050611f62565b005b61052a6004803603602081101561051457600080fd5b810190808035906020019092919050505061208f565b005b34801561053857600080fd5b506105656004803603602081101561054f57600080fd5b81019080803590602001909291905050506121bc565b604051808681526020018581526020018481526020018381526020018273ffffffffffffffffffffffffffffffffffffffff1673ffffffffffffffffffffffffffffffffffffffff1681526020019550505050505060405180910390f35b3480156105cf57600080fd5b506105d8612221565b6040518082815260200191505060405180910390f35b3480156105fa57600080fd5b506106676004803603606081101561061157600080fd5b81019080803573ffffffffffffffffffffffffffffffffffffffff169060200190929190803573ffffffffffffffffffffffffffffffffffffffff16906020019092919080359060200190929190505050612227565b005b6106716122db565b005b34801561067f57600080fd5b5061068861235d565b6040518082815260200191505060405180910390f35b3480156106aa57600080fd5b506106b3612363565b604051808260ff1660ff16815260200191505060405180910390f35b610792600480360360408110156106e557600080fd5b81019080803590602001909291908035906020019064010000000081111561070c57600080fd5b82018360208201111561071e57600080fd5b8035906020019184600183028401116401000000008311171561074057600080fd5b91908080601f016020809104026020016040519081016040528093929190818152602001838380828437600081840152601f19601f820116905080830192505050505050509192919290505050612376565b005b3480156107a057600080fd5b506107a961249d565b6040518082815260200191505060405180910390f35b3480156107cb57600080fd5b506107d46124a3565b6040518082815260200191505060405180910390f35b3480156107f657600080fd5b506107ff6124a9565b6040518082815260200191505060405180910390f35b34801561082157600080fd5b5061082a6124af565b6040518082815260200191505060405180910390f35b6109036004803603604081101561085657600080fd5b81019080803590602001909291908035906020019064010000000081111561087d57600080fd5b82018360208201111561088f57600080fd5b803590602001918460018302840111640100000000831117156108b157600080fd5b91908080601f016020809104026020016040519081016040528093929190818152602001838380828437600081840152601f19601f8201169050808301925050505050505091929192905050506124b5565b005b34801561091157600080fd5b5061097e6004803603606081101561092857600080fd5b81019080803573ffffffffffffffffffffffffffffffffffffffff169060200190929190803573ffffffffffffffffffffffffffffffffffffffff169060200190929190803590602001909291905050506125dc565b005b34801561098c57600080fd5b506109956125fd565b604051808273ffffffffffffffffffffffffffffffffffffffff1673ffffffffffffffffffffffffffffffffffffffff16815260200191505060405180910390f35b3480156109e357600080fd5b506109ec612623565b6040518082815260200191505060405180910390f35b610ac560048036036040811015610a1857600080fd5b810190808035906020019092919080359060200190640100000000811115610a3f57600080fd5b820183602082011115610a5157600080fd5b80359060200191846001830284011164010000000083111715610a7357600080fd5b91908080601f016020809104026020016040519081016040528093929190818152602001838380828437600081840152601f19601f820116905080830192505050505050509192919290505050612629565b005b348015610ad357600080fd5b50610b0060048036036020811015610aea57600080fd5b8101908080359060200190929190505050612750565b604051808273ffffffffffffffffffffffffffffffffffffffff1673ffffffffffffffffffffffffffffffffffffffff16815260200191505060405180910390f35b610b6e60048036036020811015610b5857600080fd5b810190808035906020019092919050505061285d565b005b348015610b7c57600080fd5b50610b85612932565b6040518082815260200191505060405180910390f35b348015610ba757600080fd5b50610bea60048036036020811015610bbe57600080fd5b81019080803573ffffffffffffffffffffffffffffffffffffffff169060200190929190505050612938565b6040518082815260200191505060405180910390f35b610cc360048036036040811015610c1657600080fd5b810190808035906020019092919080359060200190640100000000811115610c3d57600080fd5b820183602082011115610c4f57600080fd5b80359060200191846001830284011164010000000083111715610c7157600080fd5b91908080601f016020809104026020016040519081016040528093929190818152602001838380828437600081840152601f19601f820116905080830192505050505050509192919290505050612a52565b005b348015610cd157600080fd5b50610cda612b79565b6040518082815260200191505060405180910390f35b348015610cfc57600080fd5b50610d05612b7f565b6040518082815260200191505060405180910390f35b348015610d2757600080fd5b50610d5460048036036020811015610d3e57600080fd5b8101908080359060200190929190505050612b85565b604051808060200180602001806020018060200180602001806020018981526020018873ffffffffffffffffffffffffffffffffffffffff1673ffffffffffffffffffffffffffffffffffffffff16815260200187810387528f818151815260200191508051906020019080838360005b83811015610de0578082015181840152602081019050610dc5565b50505050905090810190601f168015610e0d5780820380516001836020036101000a031916815260200191505b5087810386528e818151815260200191508051906020019080838360005b83811015610e46578082015181840152602081019050610e2b565b50505050905090810190601f168015610e735780820380516001836020036101000a031916815260200191505b5087810385528d818151815260200191508051906020019080838360005b83811015610eac578082015181840152602081019050610e91565b50505050905090810190601f168015610ed95780820380516001836020036101000a031916815260200191505b5087810384528c818151815260200191508051906020019080838360005b83811015610f12578082015181840152602081019050610ef7565b50505050905090810190601f168015610f3f5780820380516001836020036101000a031916815260200191505b5087810383528b818151815260200191508051906020019080838360005b83811015610f78578082015181840152602081019050610f5d565b50505050905090810190601f168015610fa55780820380516001836020036101000a031916815260200191505b5087810382528a818151815260200191508051906020019080838360005b83811015610fde578082015181840152602081019050610fc3565b50505050905090810190601f16801561100b5780820380516001836020036101000a031916815260200191505b509e50505050505050505050505050505060405180910390f35b34801561103157600080fd5b5061103a612f8c565b604051808273ffffffffffffffffffffffffffffffffffffffff1673ffffffffffffffffffffffffffffffffffffffff16815260200191505060405180910390f35b34801561108857600080fd5b50611091612fb2565b6040518082815260200191505060405180910390f35b61116a600480360360408110156110bd57600080fd5b8101908080359060200190929190803590602001906401000000008111156110e457600080fd5b8201836020820111156110f657600080fd5b8035906020019184600183028401116401000000008311171561111857600080fd5b91908080601f016020809104026020016040519081016040528093929190818152602001838380828437600081840152601f19601f820116905080830192505050505050509192919290505050612fb8565b005b34801561117857600080fd5b5061118161310d565b6040518080602001828103825283818151815260200191508051906020019080838360005b838110156111c15780820151818401526020810190506111a6565b50505050905090810190601f1680156111ee5780820380516001836020036101000a031916815260200191505b509250505060405180910390f35b34801561120857600080fd5b506112116131ab565b6040518082815260200191505060405180910390f35b34801561123357600080fd5b506112826004803603604081101561124a57600080fd5b81019080803573ffffffffffffffffffffffffffffffffffffffff1690602001909291908035151590602001909291905050506131b1565b005b34801561129057600080fd5b50611299613356565b6040518082815260200191505060405180910390f35b3480156112bb57600080fd5b506112c461335c565b6040518082815260200191505060405180910390f35b3480156112e657600080fd5b506113ea600480360360808110156112fd57600080fd5b81019080803573ffffffffffffffffffffffffffffffffffffffff169060200190929190803573ffffffffffffffffffffffffffffffffffffffff169060200190929190803590602001909291908035906020019064010000000081111561136457600080fd5b82018360208201111561137657600080fd5b8035906020019184600183028401116401000000008311171561139857600080fd5b91908080601f016020809104026020016040519081016040528093929190818152602001838380828437600081840152601f19601f820116905080830192505050505050509192919290505050613362565b005b6114af6004803603604081101561140257600080fd5b81019080803590602001909291908035906020019064010000000081111561142957600080fd5b82018360208201111561143b57600080fd5b8035906020019184600183028401116401000000008311171561145d57600080fd5b91908080601f016020809104026020016040519081016040528093929190818152602001838380828437600081840152601f19601f820116905080830192505050505050509192919290505050613419565b005b3480156114bd57600080fd5b506114c661365e565b6040518082815260200191505060405180910390f35b611508600480360360208110156114f257600080fd5b8101908080359060200190929190505050613664565b005b34801561151657600080fd5b5061151f613832565b6040518082815260200191505060405180910390f35b34801561154157600080fd5b5061156e6004803603602081101561155857600080fd5b8101908080359060200190929190505050613838565b604051808273ffffffffffffffffffffffffffffffffffffffff1673ffffffffffffffffffffffffffffffffffffffff16815260200191505060405180910390f35b3480156115bc57600080fd5b5061161f600480360360408110156115d357600080fd5b81019080803573ffffffffffffffffffffffffffffffffffffffff169060200190929190803573ffffffffffffffffffffffffffffffffffffffff16906020019092919050505061386b565b604051808215151515815260200191505060405180910390f35b6119e5600480360360c081101561164f57600080fd5b810190808035906020019064010000000081111561166c57600080fd5b82018360208201111561167e57600080fd5b803590602001918460018302840111640100000000831117156116a057600080fd5b91908080601f016020809104026020016040519081016040528093929190818152602001838380828437600081840152601f19601f8201169050808301925050505050505091929192908035906020019064010000000081111561170357600080fd5b82018360208201111561171557600080fd5b8035906020019184600183028401116401000000008311171561173757600080fd5b91908080601f016020809104026020016040519081016040528093929190818152602001838380828437600081840152601f19601f8201169050808301925050505050505091929192908035906020019064010000000081111561179a57600080fd5b8201836020820111156117ac57600080fd5b803590602001918460018302840111640100000000831117156117ce57600080fd5b91908080601f016020809104026020016040519081016040528093929190818152602001838380828437600081840152601f19601f8201169050808301925050505050505091929192908035906020019064010000000081111561183157600080fd5b82018360208201111561184357600080fd5b8035906020019184600183028401116401000000008311171561186557600080fd5b91908080601f016020809104026020016040519081016040528093929190818152602001838380828437600081840152601f19601f820116905080830192505050505050509192919290803590602001906401000000008111156118c857600080fd5b8201836020820111156118da57600080fd5b803590602001918460018302840111640100000000831117156118fc57600080fd5b91908080601f016020809104026020016040519081016040528093929190818152602001838380828437600081840152601f19601f8201169050808301925050505050505091929192908035906020019064010000000081111561195f57600080fd5b82018360208201111561197157600080fd5b8035906020019184600183028401116401000000008311171561199357600080fd5b91908080601f016020809104026020016040519081016040528093929190818152602001838380828437600081840152601f19601f8201169050808301925050505050505091929192905050506138ff565b005b611aaa600480360360408110156119fd57600080fd5b810190808035906020019092919080359060200190640100000000811115611a2457600080fd5b820183602082011115611a3657600080fd5b80359060200191846001830284011164010000000083111715611a5857600080fd5b91908080601f016020809104026020016040519081016040528093929190818152602001838380828437600081840152601f19601f8201169050808301925050505050505091929192905050506144b5565b005b611ad860048036036020811015611ac257600080fd5b81019080803590602001909291905050506145e9565b005b611b0660048036036020811015611af057600080fd5b8101908080359060200190929190505050614716565b005b6000806000837bffffffffffffffffffffffffffffffffffffffffffffffffffffffff19167bffffffffffffffffffffffffffffffffffffffffffffffffffffffff1916815260200190815260200160002060009054906101000a900460ff169050919050565b60098054600181600116156101000203166002900480601f016020809104026020016040519081016040528092919081815260200182805460018160011615610100020316600290048015611c055780601f10611bda57610100808354040283529160200191611c05565b820191906000526020600020905b815481529060010190602001808311611be857829003601f168201915b505050505081565b6000611c1882614843565b1515611cb2576040517f08c379a000000000000000000000000000000000000000000000000000000000815260040180806020018281038252602c8152602001807f4552433732313a20617070726f76656420717565727920666f72206e6f6e657881526020017f697374656e7420746f6b656e000000000000000000000000000000000000000081525060400191505060405180910390fd5b6002600083815260200190815260200160002060009054906101000a900473ffffffffffffffffffffffffffffffffffffffff169050919050565b6000611cf882612750565b90508073ffffffffffffffffffffffffffffffffffffffff168373ffffffffffffffffffffffffffffffffffffffff1614151515611dc4576040517f08c379a00000000000000000000000000000000000000000000000000000000081526004018080602001828103825260218152602001807f4552433732313a20617070726f76616c20746f2063757272656e74206f776e6581526020017f720000000000000000000000000000000000000000000000000000000000000081525060400191505060405180910390fd5b8073ffffffffffffffffffffffffffffffffffffffff163373ffffffffffffffffffffffffffffffffffffffff161480611e045750611e03813361386b565b5b1515611e9e576040517f08c379a00000000000000000000000000000000000000000000000000000000081526004018080602001828103825260388152602001807f4552433732313a20617070726f76652063616c6c6572206973206e6f74206f7781526020017f6e6572206e6f7220617070726f76656420666f7220616c6c000000000000000081525060400191505060405180910390fd5b826002600084815260200190815260200160002060006101000a81548173ffffffffffffffffffffffffffffffffffffffff021916908373ffffffffffffffffffffffffffffffffffffffff160217905550818373ffffffffffffffffffffffffffffffffffffffff168273ffffffffffffffffffffffffffffffffffffffff167f8c5be1e5ebec7d5bd14f71427d1e84f3dd0314c0f7b2291e5b200ac8c7c3b92560405160405180910390a4505050565b60195481565b60085481565b60135481565b601a5434101580611f745750601a5434145b1515611f7f57600080fd5b3373ffffffffffffffffffffffffffffffffffffffff166006600083815260200190815260200160002060009054906101000a900473ffffffffffffffffffffffffffffffffffffffff1673ffffffffffffffffffffffffffffffffffffffff16141515611fec57600080fd5b6000601f82815481101515611ffd57fe5b9060005260206000209060050201905060018160000160008282540192505081905550600760009054906101000a900473ffffffffffffffffffffffffffffffffffffffff1673ffffffffffffffffffffffffffffffffffffffff166108fc601a549081150290604051600060405180830381858888f1935050505015801561208a573d6000803e3d6000fd5b505050565b601a54341015806120a15750601a5434145b15156120ac57600080fd5b3373ffffffffffffffffffffffffffffffffffffffff166006600083815260200190815260200160002060009054906101000a900473ffffffffffffffffffffffffffffffffffffffff1673ffffffffffffffffffffffffffffffffffffffff1614151561211957600080fd5b6000601f8281548110151561212a57fe5b9060005260206000209060050201905060018160020160008282540192505081905550600760009054906101000a900473ffffffffffffffffffffffffffffffffffffffff1673ffffffffffffffffffffffffffffffffffffffff166108fc601a549081150290604051600060405180830381858888f193505050501580156121b7573d6000803e3d6000fd5b505050565b601f818154811015156121cb57fe5b90600052602060002090600502016000915090508060000154908060010154908060020154908060030154908060040160009054906101000a900473ffffffffffffffffffffffffffffffffffffffff16905085565b600c5481565b61223133826148b5565b15156122cb576040517f08c379a00000000000000000000000000000000000000000000000000000000081526004018080602001828103825260318152602001807f4552433732313a207472616e736665722063616c6c6572206973206e6f74206f81526020017f776e6572206e6f7220617070726f76656400000000000000000000000000000081525060400191505060405180910390fd5b6122d68383836149ee565b505050565b600760009054906101000a900473ffffffffffffffffffffffffffffffffffffffff1673ffffffffffffffffffffffffffffffffffffffff166108fc3073ffffffffffffffffffffffffffffffffffffffff16319081150290604051600060405180830381858888f1935050505015801561235a573d6000803e3d6000fd5b50565b601a5481565b600b60009054906101000a900460ff1681565b601a543414151561238657600080fd5b3373ffffffffffffffffffffffffffffffffffffffff166006600084815260200190815260200160002060009054906101000a900473ffffffffffffffffffffffffffffffffffffffff1673ffffffffffffffffffffffffffffffffffffffff161415156123f357600080fd5b600060208381548110151561240457fe5b906000526020600020906008020190508181600301908051906020019061242c9291906152b7565b50600760009054906101000a900473ffffffffffffffffffffffffffffffffffffffff1673ffffffffffffffffffffffffffffffffffffffff166108fc601a549081150290604051600060405180830381858888f19350505050158015612497573d6000803e3d6000fd5b50505050565b600d5481565b60145481565b60105481565b60165481565b601a54341415156124c557600080fd5b3373ffffffffffffffffffffffffffffffffffffffff166006600084815260200190815260200160002060009054906101000a900473ffffffffffffffffffffffffffffffffffffffff1673ffffffffffffffffffffffffffffffffffffffff1614151561253257600080fd5b600060208381548110151561254357fe5b906000526020600020906008020190508181600401908051906020019061256b9291906152b7565b50600760009054906101000a900473ffffffffffffffffffffffffffffffffffffffff1673ffffffffffffffffffffffffffffffffffffffff166108fc601a549081150290604051600060405180830381858888f193505050501580156125d6573d6000803e3d6000fd5b50505050565b6125f88383836020604051908101604052806000815250613362565b505050565b602460009054906101000a900473ffffffffffffffffffffffffffffffffffffffff1681565b601c5481565b601a543414151561263957600080fd5b3373ffffffffffffffffffffffffffffffffffffffff166006600084815260200190815260200160002060009054906101000a900473ffffffffffffffffffffffffffffffffffffffff1673ffffffffffffffffffffffffffffffffffffffff161415156126a657600080fd5b60006020838154811015156126b757fe5b90600052602060002090600802019050818160020190805190602001906126df9291906152b7565b50600760009054906101000a900473ffffffffffffffffffffffffffffffffffffffff1673ffffffffffffffffffffffffffffffffffffffff166108fc601a549081150290604051600060405180830381858888f1935050505015801561274a573d6000803e3d6000fd5b50505050565b6000806001600084815260200190815260200160002060009054906101000a900473ffffffffffffffffffffffffffffffffffffffff169050600073ffffffffffffffffffffffffffffffffffffffff168173ffffffffffffffffffffffffffffffffffffffff1614151515612854576040517f08c379a00000000000000000000000000000000000000000000000000000000081526004018080602001828103825260298152602001807f4552433732313a206f776e657220717565727920666f72206e6f6e657869737481526020017f656e7420746f6b656e000000000000000000000000000000000000000000000081525060400191505060405180910390fd5b80915050919050565b3373ffffffffffffffffffffffffffffffffffffffff166006600083815260200190815260200160002060009054906101000a900473ffffffffffffffffffffffffffffffffffffffff1673ffffffffffffffffffffffffffffffffffffffff161415156128ca57600080fd5b60006020828154811015156128db57fe5b90600052602060002090600802019050338160070160006101000a81548173ffffffffffffffffffffffffffffffffffffffff021916908373ffffffffffffffffffffffffffffffffffffffff1602179055505050565b600f5481565b60008073ffffffffffffffffffffffffffffffffffffffff168273ffffffffffffffffffffffffffffffffffffffff1614151515612a04576040517f08c379a000000000000000000000000000000000000000000000000000000000815260040180806020018281038252602a8152602001807f4552433732313a2062616c616e636520717565727920666f7220746865207a6581526020017f726f20616464726573730000000000000000000000000000000000000000000081525060400191505060405180910390fd5b612a4b600360008473ffffffffffffffffffffffffffffffffffffffff1673ffffffffffffffffffffffffffffffffffffffff168152602001908152602001600020614cd3565b9050919050565b601a5434141515612a6257600080fd5b3373ffffffffffffffffffffffffffffffffffffffff166006600084815260200190815260200160002060009054906101000a900473ffffffffffffffffffffffffffffffffffffffff1673ffffffffffffffffffffffffffffffffffffffff16141515612acf57600080fd5b6000602083815481101515612ae057fe5b9060005260206000209060080201905081816001019080519060200190612b089291906152b7565b50600760009054906101000a900473ffffffffffffffffffffffffffffffffffffffff1673ffffffffffffffffffffffffffffffffffffffff166108fc601a549081150290604051600060405180830381858888f19350505050158015612b73573d6000803e3d6000fd5b50505050565b600e5481565b601b5481565b602081815481101515612b9457fe5b9060005260206000209060080201600091509050806000018054600181600116156101000203166002900480601f016020809104026020016040519081016040528092919081815260200182805460018160011615610100020316600290048015612c405780601f10612c1557610100808354040283529160200191612c40565b820191906000526020600020905b815481529060010190602001808311612c2357829003601f168201915b505050505090806001018054600181600116156101000203166002900480601f016020809104026020016040519081016040528092919081815260200182805460018160011615610100020316600290048015612cde5780601f10612cb357610100808354040283529160200191612cde565b820191906000526020600020905b815481529060010190602001808311612cc157829003601f168201915b505050505090806002018054600181600116156101000203166002900480601f016020809104026020016040519081016040528092919081815260200182805460018160011615610100020316600290048015612d7c5780601f10612d5157610100808354040283529160200191612d7c565b820191906000526020600020905b815481529060010190602001808311612d5f57829003601f168201915b505050505090806003018054600181600116156101000203166002900480601f016020809104026020016040519081016040528092919081815260200182805460018160011615610100020316600290048015612e1a5780601f10612def57610100808354040283529160200191612e1a565b820191906000526020600020905b815481529060010190602001808311612dfd57829003601f168201915b505050505090806004018054600181600116156101000203166002900480601f016020809104026020016040519081016040528092919081815260200182805460018160011615610100020316600290048015612eb85780601f10612e8d57610100808354040283529160200191612eb8565b820191906000526020600020905b815481529060010190602001808311612e9b57829003601f168201915b505050505090806005018054600181600116156101000203166002900480601f016020809104026020016040519081016040528092919081815260200182805460018160011615610100020316600290048015612f565780601f10612f2b57610100808354040283529160200191612f56565b820191906000526020600020905b815481529060010190602001808311612f3957829003601f168201915b5050505050908060060154908060070160009054906101000a900473ffffffffffffffffffffffffffffffffffffffff16905088565b600760009054906101000a900473ffffffffffffffffffffffffffffffffffffffff1681565b60155481565b601d54341480612fca5750601d543410155b1515612fd557600080fd5b6000602083815481101515612fe657fe5b906000526020600020906008020190508181600501908051906020019061300e9291906152b7565b508060070160009054906101000a900473ffffffffffffffffffffffffffffffffffffffff1673ffffffffffffffffffffffffffffffffffffffff166108fc6002601d5481151561305b57fe5b049081150290604051600060405180830381858888f19350505050158015613087573d6000803e3d6000fd5b50600760009054906101000a900473ffffffffffffffffffffffffffffffffffffffff1673ffffffffffffffffffffffffffffffffffffffff166108fc3073ffffffffffffffffffffffffffffffffffffffff16319081150290604051600060405180830381858888f19350505050158015613107573d6000803e3d6000fd5b50505050565b600a8054600181600116156101000203166002900480601f0160208091040260200160405190810160405280929190818152602001828054600181600116156101000203166002900480156131a35780601f10613178576101008083540402835291602001916131a3565b820191906000526020600020905b81548152906001019060200180831161318657829003601f168201915b505050505081565b60175481565b3373ffffffffffffffffffffffffffffffffffffffff168273ffffffffffffffffffffffffffffffffffffffff1614151515613255576040517f08c379a00000000000000000000000000000000000000000000000000000000081526004018080602001828103825260198152602001807f4552433732313a20617070726f766520746f2063616c6c65720000000000000081525060200191505060405180910390fd5b80600460003373ffffffffffffffffffffffffffffffffffffffff1673ffffffffffffffffffffffffffffffffffffffff16815260200190815260200160002060008473ffffffffffffffffffffffffffffffffffffffff1673ffffffffffffffffffffffffffffffffffffffff16815260200190815260200160002060006101000a81548160ff0219169083151502179055508173ffffffffffffffffffffffffffffffffffffffff163373ffffffffffffffffffffffffffffffffffffffff167f17307eab39ab6107e8899845ad3d59bd9653f200f220920489ca2b5937696c3183604051808215151515815260200191505060405180910390a35050565b60115481565b601e5481565b61336d848484612227565b61337984848484614ce1565b1515613413576040517f08c379a00000000000000000000000000000000000000000000000000000000081526004018080602001828103825260328152602001807f4552433732313a207472616e7366657220746f206e6f6e20455243373231526581526020017f63656976657220696d706c656d656e746572000000000000000000000000000081525060400191505060405180910390fd5b50505050565b601b5434148061342b5750601b543410155b151561343657600080fd5b3373ffffffffffffffffffffffffffffffffffffffff166006600084815260200190815260200160002060009054906101000a900473ffffffffffffffffffffffffffffffffffffffff1673ffffffffffffffffffffffffffffffffffffffff161415156134a357600080fd5b60006020838154811015156134b457fe5b90600052602060002090600802019050600060058260000160405180828054600181600116156101000203166002900480156135275780601f10613505576101008083540402835291820191613527565b820191906000526020600020905b815481529060010190602001808311613513575b5050915050908152602001604051809103902060006101000a81548160ff021916908315150217905550818160000190805190602001906135699291906152b7565b5060016005836040518082805190602001908083835b6020831015156135a4578051825260208201915060208101905060208303925061357f565b6001836020036101000a038019825116818451168082178552505050505050905001915050908152602001604051809103902060006101000a81548160ff021916908315150217905550600760009054906101000a900473ffffffffffffffffffffffffffffffffffffffff1673ffffffffffffffffffffffffffffffffffffffff166108fc601a549081150290604051600060405180830381858888f19350505050158015613658573d6000803e3d6000fd5b50505050565b601d5481565b601c543414806136765750601c543410155b151561368157600080fd5b600060208281548110151561369257fe5b906000526020600020906008020190503373ffffffffffffffffffffffffffffffffffffffff166006600084815260200190815260200160002060009054906101000a900473ffffffffffffffffffffffffffffffffffffffff1673ffffffffffffffffffffffffffffffffffffffff1614156137215760008160060160008282540192505081905550613735565b600a81600601600082825401925050819055505b8060070160009054906101000a900473ffffffffffffffffffffffffffffffffffffffff1673ffffffffffffffffffffffffffffffffffffffff166108fc6002601c5481151561378157fe5b049081150290604051600060405180830381858888f193505050501580156137ad573d6000803e3d6000fd5b50600760009054906101000a900473ffffffffffffffffffffffffffffffffffffffff1673ffffffffffffffffffffffffffffffffffffffff166108fc3073ffffffffffffffffffffffffffffffffffffffff16319081150290604051600060405180830381858888f1935050505015801561382d573d6000803e3d6000fd5b505050565b60125481565b60066020528060005260406000206000915054906101000a900473ffffffffffffffffffffffffffffffffffffffff1681565b6000600460008473ffffffffffffffffffffffffffffffffffffffff1673ffffffffffffffffffffffffffffffffffffffff16815260200190815260200160002060008373ffffffffffffffffffffffffffffffffffffffff1673ffffffffffffffffffffffffffffffffffffffff16815260200190815260200160002060009054906101000a900460ff16905092915050565b6018546008541115151561391257600080fd5b6005866040518082805190602001908083835b60208310151561394a5780518252602082019150602081019050602083039250613925565b6001836020036101000a038019825116818451168082178552505050505050905001915050908152602001604051809103902060009054906101000a900460ff1615151561399757600080fd5b602080549050601e81905550602061010060405190810160405280888152602001878152602001868152602001858152602001848152602001838152602001600181526020013373ffffffffffffffffffffffffffffffffffffffff16815250908060018154018082558091505090600182039060005260206000209060080201600090919290919091506000820151816000019080519060200190613a3e929190615337565b506020820151816001019080519060200190613a5b929190615337565b506040820151816002019080519060200190613a78929190615337565b506060820151816003019080519060200190613a95929190615337565b506080820151816004019080519060200190613ab2929190615337565b5060a0820151816005019080519060200190613acf929190615337565b5060c0820151816006015560e08201518160070160006101000a81548173ffffffffffffffffffffffffffffffffffffffff021916908373ffffffffffffffffffffffffffffffffffffffff160217905550505050601f60a060405190810160405280600081526020016000815260200160008152602001600081526020013373ffffffffffffffffffffffffffffffffffffffff16815250908060018154018082558091505090600182039060005260206000209060050201600090919290919091506000820151816000015560208201518160010155604082015181600201556060820151816003015560808201518160040160006101000a81548173ffffffffffffffffffffffffffffffffffffffff021916908373ffffffffffffffffffffffffffffffffffffffff160217905550505050613c1133601e54614f04565b6008600081548092919060010191905055503360066000601e54815260200190815260200160002060006101000a81548173ffffffffffffffffffffffffffffffffffffffff021916908373ffffffffffffffffffffffffffffffffffffffff16021790555060016005876040518082805190602001908083835b602083101515613cb15780518252602082019150602081019050602083039250613c8c565b6001836020036101000a038019825116818451168082178552505050505050905001915050908152602001604051809103902060006101000a81548160ff0219169083151502179055506064600854111515613d9057600c54341480613d195750600c543410155b1515613d2457600080fd5b600760009054906101000a900473ffffffffffffffffffffffffffffffffffffffff1673ffffffffffffffffffffffffffffffffffffffff166108fc600c549081150290604051600060405180830381858888f19350505050158015613d8e573d6000803e3d6000fd5b505b61038460085411158015613da657506064600854115b15613e3457600d54341480613dbd5750600d543410155b1515613dc857600080fd5b600760009054906101000a900473ffffffffffffffffffffffffffffffffffffffff1673ffffffffffffffffffffffffffffffffffffffff166108fc600d549081150290604051600060405180830381858888f19350505050158015613e32573d6000803e3d6000fd5b505b61232860085411158015613e4b5750610384600854115b15613ed957600e54341480613e625750600e543410155b1515613e6d57600080fd5b600760009054906101000a900473ffffffffffffffffffffffffffffffffffffffff1673ffffffffffffffffffffffffffffffffffffffff166108fc600e549081150290604051600060405180830381858888f19350505050158015613ed7573d6000803e3d6000fd5b505b614e2060085411158015613ef05750612328600854115b15613f7e57600f54341480613f075750600f543410155b1515613f1257600080fd5b600760009054906101000a900473ffffffffffffffffffffffffffffffffffffffff1673ffffffffffffffffffffffffffffffffffffffff166108fc600f549081150290604051600060405180830381858888f19350505050158015613f7c573d6000803e3d6000fd5b505b61753060085411158015613f955750614e20600854115b1561402357601054341480613fac57506010543410155b1515613fb757600080fd5b600760009054906101000a900473ffffffffffffffffffffffffffffffffffffffff1673ffffffffffffffffffffffffffffffffffffffff166108fc6010549081150290604051600060405180830381858888f19350505050158015614021573d6000803e3d6000fd5b505b619c406008541115801561403a5750617530600854115b156140c85760115434148061405157506011543410155b151561405c57600080fd5b600760009054906101000a900473ffffffffffffffffffffffffffffffffffffffff1673ffffffffffffffffffffffffffffffffffffffff166108fc6011549081150290604051600060405180830381858888f193505050501580156140c6573d6000803e3d6000fd5b505b61c350600854111580156140df5750619c40600854115b1561416d576012543414806140f657506012543410155b151561410157600080fd5b600760009054906101000a900473ffffffffffffffffffffffffffffffffffffffff1673ffffffffffffffffffffffffffffffffffffffff166108fc6012549081150290604051600060405180830381858888f1935050505015801561416b573d6000803e3d6000fd5b505b61ea6060085411158015614184575061c350600854115b156142125760135434148061419b57506013543410155b15156141a657600080fd5b600760009054906101000a900473ffffffffffffffffffffffffffffffffffffffff1673ffffffffffffffffffffffffffffffffffffffff166108fc6013549081150290604051600060405180830381858888f19350505050158015614210573d6000803e3d6000fd5b505b620111706008541115801561422a575061ea60600854115b156142b85760145434148061424157506014543410155b151561424c57600080fd5b600760009054906101000a900473ffffffffffffffffffffffffffffffffffffffff1673ffffffffffffffffffffffffffffffffffffffff166108fc6014549081150290604051600060405180830381858888f193505050501580156142b6573d6000803e3d6000fd5b505b62013880600854111580156142d1575062011170600854115b1561435f576015543414806142e857506015543410155b15156142f357600080fd5b600760009054906101000a900473ffffffffffffffffffffffffffffffffffffffff1673ffffffffffffffffffffffffffffffffffffffff166108fc6015549081150290604051600060405180830381858888f1935050505015801561435d573d6000803e3d6000fd5b505b62015f9060085411158015614378575062013880600854115b156144065760165434148061438f57506016543410155b151561439a57600080fd5b600760009054906101000a900473ffffffffffffffffffffffffffffffffffffffff1673ffffffffffffffffffffffffffffffffffffffff166108fc6016549081150290604051600060405180830381858888f19350505050158015614404573d6000803e3d6000fd5b505b620186a06008541115801561441f575062015f90600854115b156144ad5760175434148061443657506017543410155b151561444157600080fd5b600760009054906101000a900473ffffffffffffffffffffffffffffffffffffffff1673ffffffffffffffffffffffffffffffffffffffff166108fc6017549081150290604051600060405180830381858888f193505050501580156144ab573d6000803e3d6000fd5b505b505050505050565b601b543414806144c75750601b543410155b15156144d257600080fd5b3373ffffffffffffffffffffffffffffffffffffffff166006600084815260200190815260200160002060009054906101000a900473ffffffffffffffffffffffffffffffffffffffff1673ffffffffffffffffffffffffffffffffffffffff1614151561453f57600080fd5b600060208381548110151561455057fe5b90600052602060002090600802019050818160050190805190602001906145789291906152b7565b50600760009054906101000a900473ffffffffffffffffffffffffffffffffffffffff1673ffffffffffffffffffffffffffffffffffffffff166108fc601b549081150290604051600060405180830381858888f193505050501580156145e3573d6000803e3d6000fd5b50505050565b601a54341015806145fb5750601a5434145b151561460657600080fd5b3373ffffffffffffffffffffffffffffffffffffffff166006600083815260200190815260200160002060009054906101000a900473ffffffffffffffffffffffffffffffffffffffff1673ffffffffffffffffffffffffffffffffffffffff1614151561467357600080fd5b6000601f8281548110151561468457fe5b9060005260206000209060050201905060018160010160008282540192505081905550600760009054906101000a900473ffffffffffffffffffffffffffffffffffffffff1673ffffffffffffffffffffffffffffffffffffffff166108fc601a549081150290604051600060405180830381858888f19350505050158015614711573d6000803e3d6000fd5b505050565b601a54341015806147285750601a5434145b151561473357600080fd5b3373ffffffffffffffffffffffffffffffffffffffff166006600083815260200190815260200160002060009054906101000a900473ffffffffffffffffffffffffffffffffffffffff1673ffffffffffffffffffffffffffffffffffffffff161415156147a057600080fd5b6000601f828154811015156147b157fe5b9060005260206000209060050201905060018160030160008282540192505081905550600760009054906101000a900473ffffffffffffffffffffffffffffffffffffffff1673ffffffffffffffffffffffffffffffffffffffff166108fc601a549081150290604051600060405180830381858888f1935050505015801561483e573d6000803e3d6000fd5b505050565b6000806001600084815260200190815260200160002060009054906101000a900473ffffffffffffffffffffffffffffffffffffffff169050600073ffffffffffffffffffffffffffffffffffffffff168173ffffffffffffffffffffffffffffffffffffffff161415915050919050565b60006148c082614843565b151561495a576040517f08c379a000000000000000000000000000000000000000000000000000000000815260040180806020018281038252602c8152602001807f4552433732313a206f70657261746f7220717565727920666f72206e6f6e657881526020017f697374656e7420746f6b656e000000000000000000000000000000000000000081525060400191505060405180910390fd5b600061496583612750565b90508073ffffffffffffffffffffffffffffffffffffffff168473ffffffffffffffffffffffffffffffffffffffff1614806149d457508373ffffffffffffffffffffffffffffffffffffffff166149bc84611c0d565b73ffffffffffffffffffffffffffffffffffffffff16145b806149e557506149e4818561386b565b5b91505092915050565b8273ffffffffffffffffffffffffffffffffffffffff16614a0e82612750565b73ffffffffffffffffffffffffffffffffffffffff16141515614abf576040517f08c379a00000000000000000000000000000000000000000000000000000000081526004018080602001828103825260298152602001807f4552433732313a207472616e73666572206f6620746f6b656e2074686174206981526020017f73206e6f74206f776e000000000000000000000000000000000000000000000081525060400191505060405180910390fd5b600073ffffffffffffffffffffffffffffffffffffffff168273ffffffffffffffffffffffffffffffffffffffff1614151515614b8a576040517f08c379a00000000000000000000000000000000000000000000000000000000081526004018080602001828103825260248152602001807f4552433732313a207472616e7366657220746f20746865207a65726f2061646481526020017f726573730000000000000000000000000000000000000000000000000000000081525060400191505060405180910390fd5b614b9381615120565b614bda600360008573ffffffffffffffffffffffffffffffffffffffff1673ffffffffffffffffffffffffffffffffffffffff1681526020019081526020016000206151e0565b614c21600360008473ffffffffffffffffffffffffffffffffffffffff1673ffffffffffffffffffffffffffffffffffffffff168152602001908152602001600020615203565b816001600083815260200190815260200160002060006101000a81548173ffffffffffffffffffffffffffffffffffffffff021916908373ffffffffffffffffffffffffffffffffffffffff160217905550808273ffffffffffffffffffffffffffffffffffffffff168473ffffffffffffffffffffffffffffffffffffffff167fddf252ad1be2c89b69c2b068fc378daa952ba7f163c4a11628f55a4df523b3ef60405160405180910390a4505050565b600081600001549050919050565b6000614d028473ffffffffffffffffffffffffffffffffffffffff16615219565b1515614d115760019050614efc565b60008473ffffffffffffffffffffffffffffffffffffffff1663150b7a02338887876040518563ffffffff167c0100000000000000000000000000000000000000000000000000000000028152600401808573ffffffffffffffffffffffffffffffffffffffff1673ffffffffffffffffffffffffffffffffffffffff1681526020018473ffffffffffffffffffffffffffffffffffffffff1673ffffffffffffffffffffffffffffffffffffffff16815260200183815260200180602001828103825283818151815260200191508051906020019080838360005b83811015614e08578082015181840152602081019050614ded565b50505050905090810190601f168015614e355780820380516001836020036101000a031916815260200191505b5095505050505050602060405180830381600087803b158015614e5757600080fd5b505af1158015614e6b573d6000803e3d6000fd5b505050506040513d6020811015614e8157600080fd5b8101908080519060200190929190505050905063150b7a027c0100000000000000000000000000000000000000000000000000000000027bffffffffffffffffffffffffffffffffffffffffffffffffffffffff1916817bffffffffffffffffffffffffffffffffffffffffffffffffffffffff1916149150505b949350505050565b600073ffffffffffffffffffffffffffffffffffffffff168273ffffffffffffffffffffffffffffffffffffffff1614151515614fa9576040517f08c379a00000000000000000000000000000000000000000000000000000000081526004018080602001828103825260208152602001807f4552433732313a206d696e7420746f20746865207a65726f206164647265737381525060200191505060405180910390fd5b614fb281614843565b151515615027576040517f08c379a000000000000000000000000000000000000000000000000000000000815260040180806020018281038252601c8152602001807f4552433732313a20746f6b656e20616c7265616479206d696e7465640000000081525060200191505060405180910390fd5b816001600083815260200190815260200160002060006101000a81548173ffffffffffffffffffffffffffffffffffffffff021916908373ffffffffffffffffffffffffffffffffffffffff1602179055506150c0600360008473ffffffffffffffffffffffffffffffffffffffff1673ffffffffffffffffffffffffffffffffffffffff168152602001908152602001600020615203565b808273ffffffffffffffffffffffffffffffffffffffff16600073ffffffffffffffffffffffffffffffffffffffff167fddf252ad1be2c89b69c2b068fc378daa952ba7f163c4a11628f55a4df523b3ef60405160405180910390a45050565b600073ffffffffffffffffffffffffffffffffffffffff166002600083815260200190815260200160002060009054906101000a900473ffffffffffffffffffffffffffffffffffffffff1673ffffffffffffffffffffffffffffffffffffffff161415156151dd5760006002600083815260200190815260200160002060006101000a81548173ffffffffffffffffffffffffffffffffffffffff021916908373ffffffffffffffffffffffffffffffffffffffff1602179055505b50565b6151f86001826000015461522c90919063ffffffff16565b816000018190555050565b6001816000016000828254019250508190555050565b600080823b905060008111915050919050565b60008282111515156152a6576040517f08c379a000000000000000000000000000000000000000000000000000000000815260040180806020018281038252601e8152602001807f536166654d6174683a207375627472616374696f6e206f766572666c6f77000081525060200191505060405180910390fd5b600082840390508091505092915050565b828054600181600116156101000203166002900490600052602060002090601f016020900481019282601f106152f857805160ff1916838001178555615326565b82800160010185558215615326579182015b8281111561532557825182559160200191906001019061530a565b5b50905061533391906153b7565b5090565b828054600181600116156101000203166002900490600052602060002090601f016020900481019282601f1061537857805160ff19168380011785556153a6565b828001600101855582156153a6579182015b828111156153a557825182559160200191906001019061538a565b5b5090506153b391906153b7565b5090565b6153d991905b808211156153d55760008160009055506001016153bd565b5090565b9056fea165627a7a72305820933c8c5c3783a23dc9a1b2c710426721062a92dd9e4e95842b3622d0e36d5bbf0029",
  "source": "pragma solidity 0.5.0;\r\n\r\nimport \"./ERC721Full.sol\";\r\n\r\ncontract CryptoSims is ERC721 {\r\n\r\n\r\n  mapping(string => bool) _botNameExists;\r\n  \r\n   mapping (uint => address payable) public monstersIndexToAddress;\r\n    \r\n   address payable public owner;// address is payable\r\n   uint256 public totalSupply;\r\n  string public name;\r\n    string public symbol;\r\n    uint8 public decimals;\r\n    \r\n    \r\n uint256 public claimFirst100 = 0.05 ether;// 0.05 ether; //at 10$\r\n  uint256 public claimFirst900 = 0.1 ether; // 0.1 ether; //at $20\r\n  uint256 public claimFirst9k = 0.5 ether;//0.5 ether; //at $100\r\n  \r\n    uint256 public claimFirst20k = 5 ether; //set to 8 bnb\r\n    uint256 public claimFirst30k = 20 ether; //set to 8 bnb\r\n    uint256 public claimFirst40k = 100 ether; //set to 8 bnb\r\n     uint256 public claimFirst50k = 500 ether; //set to 8 bnb\r\n    uint256 public claimFirst60k = 2000 ether; //set to 8 bnb\r\n     uint256 public claimFirst70k = 10000 ether; //set to 8 bnb\r\n    uint256 public claimFirst80k = 50000 ether; //set to 8 bnb\r\n    uint256 public claimFirst90k = 200000 ether; //set to 8 bnb\r\n      uint256 public claimlast10k = 1000000 ether; //set to 8 bnb\r\n    \r\n   \r\n     uint maxSims = 100000; //100k\r\n      uint256 public claimPrice = 0.5 ether; //set to 8 bnb\r\n          uint256 public changeItemPrice = 1.0 ether; //1 bnb to change features \r\n         \r\n          uint256 public changePrice = .0003 ether;// $1 to change secret for owners\r\n          uint256 public likesPrice = 0.0001 ether; //set to $1\r\n uint256 public secretPrice = 1 ether; //1 bnb to change others secter cents;\r\n     uint public id ;\r\n      simWearables[] public sims; //sim wearables\r\n Digitmon[] public digitmon; // where all sims go \r\n uint level;\r\n uint health;\r\n string weapon;\r\n  address payable public user;\r\n \r\n \r\n struct simWearables{  // items people can buy for their sims/ can be place within block\r\n       uint a;\r\n       uint b;\r\n       uint c;\r\n       uint d;\r\n     address payable originalOwner;\r\n       \r\n   }\r\n \r\n\r\n struct Digitmon{   //all the sims\r\n     \r\n         string name; //mintabel\r\n        string gender;\r\n        string hairColor;\r\n        string eyeColor;\r\n       string  headColor;\r\n       string secret;\r\n       uint likes;\r\n      address payable simowner;\r\n\r\n     //string sale;\r\n     //uint price;\r\n      \r\n      // uint cordX;\r\n     //  uint cordY;\r\n       \r\n      \r\n }\r\n \r\n   constructor() public\r\n   {\r\n       owner = msg.sender;\r\n      name = \"Crypto Sims\";                          // Set the name for display purposes\r\n       symbol = \"SIMS\";                               // Set the symbol for display purposes\r\n       decimals = 0; \r\n    }\r\n    \r\n    \r\n // constructor() ERC721Full(\"Crypto Sims\", \"SIMS\") public {\r\n         \r\n // }\r\n\r\n\r\n\r\n  //only creater makes people\r\n  function mint(string memory _name, string memory _gender, string memory _haircolor, string memory _eyecolor, string memory _headcolor, string memory _secret) public payable {\r\n  require( totalSupply <= maxSims);// 100k sims can only be created\r\n     \r\n    require(!_botNameExists[_name]);\r\n     id = digitmon.length;\r\n     digitmon.push(Digitmon(_name, _gender, _haircolor, _eyecolor, _headcolor, _secret,1, msg.sender));\r\n     sims.push(simWearables(0,0,0,0, msg.sender));\r\n   _mint(msg.sender, id);//create them but dont mint here\r\n   \r\n    totalSupply++;//update total supply\r\n    monstersIndexToAddress[id] = msg.sender;//put address of minter inside here\r\n    _botNameExists[_name] = true;\r\n\r\n     // require(msg.sender == owner) ; \r\n     if(totalSupply <= 100){\r\n          require(msg.value ==  claimFirst100 || msg.value >=  claimFirst100 );  \r\n           owner.transfer(claimFirst100);\r\n     }\r\n     if(totalSupply <= 900 && totalSupply > 100 ){\r\n        require(msg.value == claimFirst900 || msg.value >= claimFirst900 );  \r\n        owner.transfer(claimFirst900);\r\n     }\r\n      if(totalSupply <= 9000 && totalSupply > 900){\r\n        require(msg.value == claimFirst9k || msg.value >= claimFirst9k );  //first 10k\r\n        owner.transfer(claimFirst9k);\r\n     }\r\n     \r\n     \r\n       if(totalSupply <= 20000 && totalSupply > 9000){\r\n        require(msg.value == claimFirst20k || msg.value >= claimFirst20k );  \r\n        owner.transfer(claimFirst20k);\r\n     }\r\n      if(totalSupply <= 30000  && totalSupply > 20000){\r\n        require(msg.value == claimFirst30k || msg.value >= claimFirst30k );  \r\n        owner.transfer(claimFirst30k);\r\n     }\r\n       if(totalSupply <= 40000 && totalSupply > 30000){\r\n        require(msg.value == claimFirst40k || msg.value >= claimFirst40k );  \r\n        owner.transfer(claimFirst40k);\r\n     }\r\n      if(totalSupply <= 50000 && totalSupply > 40000){\r\n        require(msg.value == claimFirst50k || msg.value >= claimFirst50k );  \r\n        owner.transfer(claimFirst50k);\r\n     }\r\n       if(totalSupply <= 60000 && totalSupply > 50000){\r\n        require(msg.value == claimFirst60k || msg.value >= claimFirst60k );  \r\n        owner.transfer(claimFirst60k);\r\n     }\r\n      if(totalSupply <= 70000 && totalSupply > 60000){\r\n        require(msg.value == claimFirst70k || msg.value >= claimFirst70k ); \r\n        owner.transfer(claimFirst70k);\r\n     }\r\n       if(totalSupply <= 80000&& totalSupply > 70000){\r\n        require(msg.value == claimFirst80k || msg.value >= claimFirst80k );  \r\n        owner.transfer(claimFirst80k);\r\n     }\r\n      if(totalSupply <= 90000 && totalSupply > 80000){\r\n        require(msg.value == claimFirst90k || msg.value >= claimFirst90k ); \r\n        owner.transfer(claimFirst90k);\r\n     }\r\n     \r\n      if(totalSupply <= 100000 && totalSupply > 90000){\r\n        require(msg.value == claimlast10k || msg.value >= claimlast10k ); \r\n        owner.transfer(claimlast10k);\r\n        \r\n     }\r\n     \r\n     \r\n     \r\n     \r\n   \r\n    \r\n   // \r\n    // owner.transfer(claimFirst900);\r\n    // owner.transfer(claimFirst9k);\r\n  }\r\n  \r\n  //make payable\r\n     function changeName(uint _id, string memory _name) public payable{\r\n          require(msg.value == changePrice || msg.value >= changePrice); \r\n            \r\n       require(monstersIndexToAddress[_id] == msg.sender);//check if address of sender is equal to the id\r\n        Digitmon  storage userDigitMon = digitmon[_id];\r\n         _botNameExists[userDigitMon.name] = false;// remove old name so others can use it \r\n        \r\n        userDigitMon.name = _name;\r\n        _botNameExists[_name] = true;// re add new name\r\n          owner.transfer(changeItemPrice );\r\n  }\r\n\r\n //make payable change sim internall address if you bought it from sombody else to recieve like royalties\r\n     function changeSimOwnerAddress(uint _id) public payable{\r\n         // require(msg.value == changePrice || msg.value >= changePrice); \r\n            \r\n       require(monstersIndexToAddress[_id] == msg.sender);//check if address of sender is equal to the id\r\n        Digitmon  storage userDigitMon = digitmon[_id];\r\n        \r\n        \r\n        userDigitMon.simowner = msg.sender;\r\n       \r\n         \r\n  }\r\n\r\n\r\n\r\n\r\n    //make payable\r\n     function changeGender(uint _id, string memory _g) public payable{\r\n          require(msg.value == changeItemPrice); \r\n       require(monstersIndexToAddress[_id] == msg.sender);//check if address of sender is equal to the id\r\n        Digitmon  storage userDigitMon = digitmon[_id];\r\n        userDigitMon.gender = _g;\r\n          owner.transfer(changeItemPrice );\r\n        \r\n  }\r\n\r\n//make payable\r\n     function changeHair(uint _id, string memory _h) public payable{\r\n          require(msg.value == changeItemPrice); \r\n       require(monstersIndexToAddress[_id] == msg.sender);//check if address of sender is equal to the id\r\n        Digitmon  storage userDigitMon = digitmon[_id];\r\n        userDigitMon.hairColor = _h;\r\n          owner.transfer(changeItemPrice );\r\n  }\r\n\r\n//make payable\r\n     function changeEye(uint _id, string memory _e) public payable{\r\n          require(msg.value == changeItemPrice); \r\n       require(monstersIndexToAddress[_id] == msg.sender);//check if address of sender is equal to the id\r\n        Digitmon  storage userDigitMon = digitmon[_id];\r\n        userDigitMon.eyeColor = _e;\r\n        owner.transfer(changeItemPrice );\r\n  }\r\n  \r\n  //make payable\r\n     function changeHead(uint _id, string memory _headcolor) public payable{\r\n          require(msg.value == changeItemPrice); \r\n       require(monstersIndexToAddress[_id] == msg.sender);//check if address of sender is equal to the id\r\n        Digitmon  storage userDigitMon = digitmon[_id];\r\n        userDigitMon.headColor = _headcolor;\r\n        owner.transfer(changeItemPrice );\r\n  }\r\n\r\n\r\n \r\n  //make payable\r\n     function changeSecret(uint _id, string memory _secret) public payable{\r\n            require(msg.value == changePrice || msg.value >= changePrice); \r\n       require(monstersIndexToAddress[_id] == msg.sender);//check if address of sender is equal to the id\r\n        Digitmon  storage userDigitMon = digitmon[_id];\r\n        userDigitMon.secret = _secret;\r\n        owner.transfer(changePrice );\r\n  }\r\n\r\n\r\n  //make payable\r\n     function giveLike(uint _id) public payable{\r\n           require(msg.value == likesPrice || msg.value >= likesPrice);\r\n      // require(monstersIndexToAddress[_id+3] == msg.sender);//\r\n      Digitmon  storage userDigitMon = digitmon[_id];\r\n     // simWearables  storage usersim = sims[_id];\r\n    if(monstersIndexToAddress[_id] == msg.sender){\r\n         userDigitMon.likes += 0; \r\n    }else{\r\n          userDigitMon.likes += 10;\r\n    }\r\n        //give share to users\r\n       // user = monstersIndexToAddress[_id] ;dnt need\r\n     \r\n      \r\n       \r\n       userDigitMon.simowner.transfer(likesPrice/2);// give to current owner\r\n       \r\n      \r\n       owner.transfer(address(this).balance);\r\n       \r\n  }\r\n  \r\n  \r\n  \r\n    //change others secret , add an add for a price , sim owner gets royalties /2\r\n     function changeOthersSecret(uint _id, string memory _secret) public payable{\r\n           require(msg.value == secretPrice || msg.value >= secretPrice);\r\n      // require(monstersIndexToAddress[_id+3] == msg.sender);//\r\n      Digitmon  storage userDigitMon = digitmon[_id];\r\n      userDigitMon.secret = _secret;\r\n        //give share to users\r\n       // user = monstersIndexToAddress[_id] ;dnt need\r\n       userDigitMon.simowner.transfer(secretPrice/2);\r\n       owner.transfer(address(this).balance);\r\n  }\r\n\r\n\r\n\r\n\r\n  //make payable\r\n     function equipA(uint _id) public payable{\r\n          require(msg.value >= changeItemPrice || msg.value == changeItemPrice); \r\n       require(monstersIndexToAddress[_id] == msg.sender);//check if address of sender is equal to the id\r\n        simWearables  storage simbag = sims[_id];\r\n        simbag.a += 1;\r\n        owner.transfer(changeItemPrice);\r\n  }\r\n\r\n  //make payable\r\n     function equipB(uint _id) public payable{\r\n            require(msg.value >= changeItemPrice || msg.value == changeItemPrice);  \r\n       require(monstersIndexToAddress[_id] == msg.sender);//check if address of sender is equal to the id\r\n        simWearables  storage simbag = sims[_id];\r\n        simbag.b += 1;\r\n        owner.transfer(changeItemPrice);\r\n  }\r\n\r\n//make payable\r\n     function equipC(uint _id) public payable{\r\n          require(msg.value >= changeItemPrice || msg.value == changeItemPrice);  \r\n       require(monstersIndexToAddress[_id] == msg.sender);//check if address of sender is equal to the id\r\n        simWearables  storage simbag = sims[_id];\r\n        simbag.c += 1;\r\n        owner.transfer(changeItemPrice);\r\n  }\r\n\r\n  \r\n  //make payable\r\n     function equipD(uint _id) public payable{\r\n           require(msg.value >= changeItemPrice || msg.value == changeItemPrice); \r\n       require(monstersIndexToAddress[_id] == msg.sender);//check if address of sender is equal to the id\r\n        simWearables  storage simbag = sims[_id];\r\n        simbag.d += 1;\r\n        owner.transfer(changeItemPrice);\r\n  }\r\n\r\n\r\n\r\n \r\n\r\n\r\n  \r\n    //This function will return all born creatures\r\n    function withdrawGds()public payable{\r\n        \r\n       // return  digitmon.length ;\r\n      //  uint256 ss = address.this.balance;\r\n           owner.transfer(address(this).balance);\r\n    }\r\n    \r\n  \r\n  \r\n  \r\n  \r\n  \r\n   \r\n\r\n\r\n  \r\n   \r\n}",
  "sourcePath": "C:/Users/rcan/nft-master/src/contracts/CryptoSims.sol",
  "compiler": {
    "name": "solc",
    "version": "0.5.0+commit.1d4f565a.Emscripten.clang"
  },
  "schemaVersion": "3.0.1",
  "updatedAt": "2021-03-16T01:13:23.999Z",
  "devdoc": {
    "methods": {
      "approve(address,uint256)": {
        "details": "Approves another address to transfer the given token ID The zero address indicates there is no approved address. There can only be one approved address per token at a given time. Can only be called by the token owner or an approved operator.",
        "params": {
          "to": "address to be approved for the given token ID",
          "tokenId": "uint256 ID of the token to be approved"
        }
      },
      "balanceOf(address)": {
        "details": "Gets the balance of the specified address.",
        "params": {
          "owner": "address to query the balance of"
        },
        "return": "uint256 representing the amount owned by the passed address"
      },
      "getApproved(uint256)": {
        "details": "Gets the approved address for a token ID, or zero if no address set Reverts if the token ID does not exist.",
        "params": {
          "tokenId": "uint256 ID of the token to query the approval of"
        },
        "return": "address currently approved for the given token ID"
      },
      "isApprovedForAll(address,address)": {
        "details": "Tells whether an operator is approved by a given owner.",
        "params": {
          "operator": "operator address which you want to query the approval of",
          "owner": "owner address which you want to query the approval of"
        },
        "return": "bool whether the given operator is approved by the given owner"
      },
      "ownerOf(uint256)": {
        "details": "Gets the owner of the specified token ID.",
        "params": {
          "tokenId": "uint256 ID of the token to query the owner of"
        },
        "return": "address currently marked as the owner of the given token ID"
      },
      "safeTransferFrom(address,address,uint256)": {
        "details": "Safely transfers the ownership of a given token ID to another address If the target address is a contract, it must implement `onERC721Received`, which is called upon a safe transfer, and return the magic value `bytes4(keccak256(\"onERC721Received(address,address,uint256,bytes)\"))`; otherwise, the transfer is reverted. Requires the msg.sender to be the owner, approved, or operator",
        "params": {
          "from": "current owner of the token",
          "to": "address to receive the ownership of the given token ID",
          "tokenId": "uint256 ID of the token to be transferred"
        }
      },
      "safeTransferFrom(address,address,uint256,bytes)": {
        "details": "Safely transfers the ownership of a given token ID to another address If the target address is a contract, it must implement `onERC721Received`, which is called upon a safe transfer, and return the magic value `bytes4(keccak256(\"onERC721Received(address,address,uint256,bytes)\"))`; otherwise, the transfer is reverted. Requires the msg.sender to be the owner, approved, or operator",
        "params": {
          "_data": "bytes data to send along with a safe transfer check",
          "from": "current owner of the token",
          "to": "address to receive the ownership of the given token ID",
          "tokenId": "uint256 ID of the token to be transferred"
        }
      },
      "setApprovalForAll(address,bool)": {
        "details": "Sets or unsets the approval of a given operator An operator is allowed to transfer all tokens of the sender on their behalf.",
        "params": {
          "approved": "representing the status of the approval to be set",
          "to": "operator address to set the approval"
        }
      },
      "supportsInterface(bytes4)": {
        "details": "See `IERC165.supportsInterface`.     * Time complexity O(1), guaranteed to always use less than 30 000 gas."
      },
      "transferFrom(address,address,uint256)": {
        "details": "Transfers the ownership of a given token ID to another address. Usage of this method is discouraged, use `safeTransferFrom` whenever possible. Requires the msg.sender to be the owner, approved, or operator.",
        "params": {
          "from": "current owner of the token",
          "to": "address to receive the ownership of the given token ID",
          "tokenId": "uint256 ID of the token to be transferred"
        }
      }
    }
  },
  "userdoc": {
    "methods": {}
  }
}